:020000040000fa
:080000000002040000000000f2
:020000040000fa
:04000800b40300003d
:020000040000fa
:04000c00fc020000f2
:020000040000fa
:040010003e030000ab
:020000040000fa
:040014001c030000c9
:020000040000fa
:040018005e03000083
:020000040000fa
:04001c00b403000029
:020000040000fa
:04002000b403000025
:020000040000fa
:04002400b403000021
:020000040000fa
:04002800b40300001d
:020000040000fa
:04002c00b403000019
:020000040000fa
:04003000b403000015
:020000040000fa
:040034007e03000047
:020000040000fa
:04003800b40300000d
:020000040000fa
:04003c00b403000009
:020000040000fa
:04004000b403000005
:020000040000fa
:04004400b403000001
:020000040000fa
:04004800b4030000fd
:020000040000fa
:04004c00b4030000f9
:020000040000fa
:04005000b4030000f5
:020000040000fa
:04005400b4030000f1
:020000040000fa
:04005800b4030000ed
:020000040000fa
:04005c00b4030000e9
:020000040000fa
:04006000b4030000e5
:020000040000fa
:04006400b4030000e1
:020000040000fa
:04006800b4030000dd
:020000040000fa
:04006c00b4030000d9
:020000040000fa
:04007000b4030000d5
:020000040000fa
:04007400b4030000d1
:020000040000fa
:04007800b4030000cd
:020000040000fa
:04007c00b4030000c9
:020000040000fa
:04008000b4030000c5
:020000040000fa
:04008400b4030000c1
:020000040000fa
:04008800b4030000bd
:020000040000fa
:04008c00b4030000b9
:020000040000fa
:04009000b4030000b5
:020000040000fa
:04009400b4030000b1
:020000040000fa
:04009800b4030000ad
:020000040000fa
:04009c00b4030000a9
:020000040000fa
:0400a000b4030000a5
:020000040000fa
:0400a400b4030000a1
:020000040000fa
:0400a800b40300009d
:020000040000fa
:0400ac00b403000099
:020000040000fa
:0400b000b403000095
:020000040000fa
:0400b400b403000091
:020000040000fa
:0400b800b40300008d
:020000040000fa
:0400bc00b403000089
:020000040000fa
:0400c000b403000085
:020000040000fa
:0400c400b403000081
:020000040000fa
:0400c800b40300007d
:020000040000fa
:0400cc00b403000079
:020000040000fa
:0400d000b403000075
:020000040000fa
:0400d400b403000071
:020000040000fa
:0400d800b40300006d
:020000040000fa
:0400dc00b403000069
:020000040000fa
:0400e000b403000065
:020000040000fa
:0400e400b403000061
:020000040000fa
:0400e800b40300005d
:020000040000fa
:0400ec00b403000059
:020000040000fa
:0400f000b403000055
:020000040000fa
:0400f400b403000051
:020000040000fa
:0400f800b40300004d
:020000040000fa
:0400fc00b403000049
:020000040000fa
:04010000b403000044
:020000040000fa
:04010400b403000040
:020000040000fa
:04010800b40300003c
:020000040000fa
:04010c00b403000038
:020000040000fa
:04011000b403000034
:020000040000fa
:04011400b403000030
:020000040000fa
:04011800b40300002c
:020000040000fa
:04011c00b403000028
:020000040000fa
:04012000b403000024
:020000040000fa
:04012400b403000020
:020000040000fa
:04012800b40300001c
:020000040000fa
:04012c00b403000018
:020000040000fa
:04013000b403000014
:020000040000fa
:04013400b403000010
:020000040000fa
:04013800b40300000c
:020000040000fa
:04013c00b403000008
:020000040000fa
:04014000b403000004
:020000040000fa
:04014400b403000000
:020000040000fa
:04014800b4030000fc
:020000040000fa
:04014c00b4030000f8
:020000040000fa
:04015000b4030000f4
:020000040000fa
:04015400b4030000f0
:020000040000fa
:04015800b4030000ec
:020000040000fa
:04015c00b4030000e8
:020000040000fa
:04016000b4030000e4
:020000040000fa
:04016400b4030000e0
:020000040000fa
:04016800b4030000dc
:020000040000fa
:04016c00b4030000d8
:020000040000fa
:04017000b4030000d4
:020000040000fa
:04017400b4030000d0
:020000040000fa
:04017800b4030000cc
:020000040000fa
:04017c00b4030000c8
:020000040000fa
:04018000b4030000c4
:020000040000fa
:04018400b4030000c0
:020000040000fa
:04018800b4030000bc
:020000040000fa
:04018c00b4030000b8
:020000040000fa
:04019000b4030000b4
:020000040000fa
:04019400b4030000b0
:020000040000fa
:04019800b4030000ac
:020000040000fa
:04019c00b4030000a8
:020000040000fa
:04020800b40300003b
:020000040000fa
:04020c00fc020000f0
:020000040000fa
:040210003e030000a9
:020000040000fa
:040214001c030000c7
:020000040000fa
:040218005e03000081
:020000040000fa
:04021c00b403000027
:020000040000fa
:04022000b403000023
:020000040000fa
:04022400b40300001f
:020000040000fa
:04022800b40300001b
:020000040000fa
:04022c00b403000017
:020000040000fa
:04023000b403000013
:020000040000fa
:040234007e03000045
:020000040000fa
:04023800b40300000b
:020000040000fa
:04023c00b403000007
:020000040000fa
:04024000b403000003
:020000040000fa
:04024400b4030000ff
:020000040000fa
:04024800b4030000fb
:020000040000fa
:04024c00b4030000f7
:020000040000fa
:04025000b4030000f3
:020000040000fa
:04025400b4030000ef
:020000040000fa
:04025800b4030000eb
:020000040000fa
:04025c00b4030000e7
:020000040000fa
:04026000b4030000e3
:020000040000fa
:04026400b4030000df
:020000040000fa
:04026800b4030000db
:020000040000fa
:04026c00b4030000d7
:020000040000fa
:04027000b4030000d3
:020000040000fa
:04027400b4030000cf
:020000040000fa
:04027800b4030000cb
:020000040000fa
:04027c00b4030000c7
:020000040000fa
:04028000b4030000c3
:020000040000fa
:04028400b4030000bf
:020000040000fa
:04028800b4030000bb
:020000040000fa
:04028c00b4030000b7
:020000040000fa
:04029000b4030000b3
:020000040000fa
:04029400b4030000af
:020000040000fa
:04029800b4030000ab
:020000040000fa
:04029c00b4030000a7
:020000040000fa
:0402a000b4030000a3
:020000040000fa
:0402a400b40300009f
:020000040000fa
:0402a800b40300009b
:020000040000fa
:0402ac00b403000097
:020000040000fa
:0402b000b403000093
:020000040000fa
:0402b400b40300008f
:020000040000fa
:0402b800b40300008b
:020000040000fa
:0402bc00b403000087
:020000040000fa
:0402c000b403000083
:020000040000fa
:0402c400b40300007f
:020000040000fa
:0402c800b40300007b
:020000040000fa
:0402cc00b403000077
:020000040000fa
:0402d000b403000073
:020000040000fa
:0402d400b40300006f
:020000040000fa
:0402d800b40300006b
:020000040000fa
:0402dc00b403000067
:020000040000fa
:0402e000b403000063
:020000040000fa
:0402e400b40300005f
:020000040000fa
:0402e800b40300005b
:020000040000fa
:0402ec00b403000057
:020000040000fa
:0402f000b403000053
:020000040000fa
:0402f400b40300004f
:020000040000fa
:0402f800b40300004b
:020000040000fa
:0402fc00b403000047
:020000040000fa
:04030000b403000042
:020000040000fa
:04030400b40300003e
:020000040000fa
:04030800b40300003a
:020000040000fa
:04030c00b403000036
:020000040000fa
:04031000b403000032
:020000040000fa
:04031400b40300002e
:020000040000fa
:04031800b40300002a
:020000040000fa
:04031c00b403000026
:020000040000fa
:04032000b403000022
:020000040000fa
:04032400b40300001e
:020000040000fa
:04032800b40300001a
:020000040000fa
:04032c00b403000016
:020000040000fa
:04033000b403000012
:020000040000fa
:04033400b40300000e
:020000040000fa
:04033800b40300000a
:020000040000fa
:04033c00b403000006
:020000040000fa
:04034000b403000002
:020000040000fa
:04034400b4030000fe
:020000040000fa
:04034800b4030000fa
:020000040000fa
:04034c00b4030000f6
:020000040000fa
:04035000b4030000f2
:020000040000fa
:04035400b4030000ee
:020000040000fa
:04035800b4030000ea
:020000040000fa
:04035c00b4030000e6
:020000040000fa
:04036000b4030000e2
:020000040000fa
:04036400b4030000de
:020000040000fa
:04036800b4030000da
:020000040000fa
:04036c00b4030000d6
:020000040000fa
:04037000b4030000d2
:020000040000fa
:04037400b4030000ce
:020000040000fa
:04037800b4030000ca
:020000040000fa
:04037c00b4030000c6
:020000040000fa
:04038000b4030000c2
:020000040000fa
:04038400b4030000be
:020000040000fa
:04038800b4030000ba
:020000040000fa
:04038c00b4030000b6
:020000040000fa
:04039000b4030000b2
:020000040000fa
:04039400b4030000ae
:020000040000fa
:04039800b4030000aa
:020000040000fa
:04039c00b4030000a6
:020000040000fa
:100400004fcc20000e7f24000e0188000000000069
:10041000000020000000e000020032000001200087
:100420002002880014000700d10007000000e0004f
:1004300003003a008032240001002000020037004f
:100440000000200001002000810f70000100320038
:1004500014000700000020000000e000020032004d
:1004600000000200000000007c3f020000000000cd
:100470000040da000000fe004440a900e003200034
:100480000000e0000300320000002000a00188000e
:100490004440a800000006008a1f78008b1f7800e7
:1004a0000000060091018800800478000000eb0045
:1004b0001a003700e284440032a0b4009905ba0063
:1004c000e284440032a0b4009906ba00e2844400f9
:1004d00032a0b4000006eb00476fde00fd07b2005b
:1004e000636ce10003003a00ebff07000000eb0043
:1004f0000a003700606ce10004003a00005deb0088
:100500008b05e900fdff3e00040037006168e10053
:10051000010032000086eb000b00070019c7ba008b
:100520001905ba000e04e00003003a000a00e000da
:10053000e0ff3a0000000600fe07b2009e018800be
:100540008a047800f5ff3700395dba008b05e900b1
:100550000c003200295dba008b05e900080032006a
:100560000c00e00003003a00e284440032a0b40032
:10057000f5ff370019ddba008b05e900faff3a00f4
:100580008904e800e184440032a0b40000000600c1
:100590003841040000000000523c0400000000004c
:1005a000483c040000000000403c04000000000043
:1005b000383c0400000000001e2f04000000000072
:1005c000242f0400000000002a2f04000000000077
:1005d000302f040000000000362f0400000000004f
:1005e000422f040000000000522f04000000000011
:1005f0005a2f0400000000003600f800809fbe0063
:10060000829fbe00849fbe00869fbe000000fa004d
:100610008020a9000000eb006f2007000080fa0096
:100620004f03be004f02be004f01be004f00be0090
:100630003600f900004006003600f800809fbe003a
:10064000829fbe00849fbe00869fbe000000fa000d
:10065000662007008040a900100020005e200700ef
:100660000080fa004f03be004f02be004f01be00e3
:100670004f00be003600f900004006003600f800ca
:10068000809fbe00829fbe00849fbe00869fbe00ea
:100690000000fa008060a900200020004e20070022
:1006a0000080fa004f03be004f02be004f01be00a3
:1006b0004f00be003600f900004006003600f8008a
:1006c000809fbe00829fbe00849fbe00869fbe00aa
:1006d0000000fa008080a900300020003e200700c2
:1006e0000080fa004f03be004f02be004f01be0063
:1006f0004f00be003600f900004006003600f8004a
:10070000809fbe00829fbe00849fbe00869fbe0069
:100710000000fa00004080000000e000020032000b
:10072000004080000000010010cc20001040780044
:100730008040e80010cc20000148780000cc200068
:1007400011c0b300014878008460a9000080fa005d
:100750004f03be004f02be004f01be004f00be005f
:100760003600f900004006000040da000000fe00fc
:10077000000005000000fa0068815700cfb897001c
:10078000df0407000080fa000000060027000700d1
:10079000800007005a0307008e0307000a040700c1
:1007a00032040700da0407004c050700f70437009d
:1007b0008001780002003700b15978000201e90099
:1007c0000200e000fcff3a00000006008000780014
:1007d000040037003104e00002003a00000051003c
:1007e00000000600010178000108a300f9ff3a00ab
:1007f0008101780031017800f4ef2f0002024200fd
:100800000281ea000201620004082800040161007c
:10081000f7ff320083007800010178003104e00026
:10082000fdff3a000000510000000600ec87470081
:10083000889fbe008a9fbe008c9fbe008e1f7800de
:100840000006780001047800180790002805900041
:1008500098067800cdb79f00b80590003202be0020
:100860002203be000400be000601be004f18de00d9
:100870006011b8008000eb00d0b79f00e1b79f0087
:10088000f2b79f0083bf9f00800478000900e0005a
:10089000060032006000b8006011b8000402500089
:1008a0008582580006035900878359000e00e00036
:1008b000020035000d10a100cdb79f000900e00037
:1008c00005003a004fb097000028a30002003a004c
:1008d0000038a300020032008a00e900010037005e
:1008e0008a007800f8815700a200200008007800f4
:1008f000620307000900e00003003a00cfb0970050
:100900000128a300080032000000e9000081450032
:10091000b1c2b3000900e00001003200d1c2b3004f
:1009200001497800050037000138a30003003200b8
:100930000000e90001c2b300817578004801900011
:100940000201e90000015100808045004fb297008c
:100950008a0178000c0078002b0507009c009000ad
:100960000188a3000400320098009000810f50001d
:1009700001003d00010078004f0778004f06be00df
:100980004f05be004f04be00cf00b10000000600be
:10099000000006004200fa00889fbe008a9fbe0049
:1009a0008c9fbe0020079800110f9800034f9800fd
:1009b00011007800400f980091009000610f98009e
:1009c0009e099000a3019000330f98001e0a90002a
:1009d00044029000140798009e0a9000b50290000f
:1009e000052798003204be002205be006022b80030
:1009f0006033b8000800be000a01be00dd07070032
:100a00000000e00003003d000bf0a200d0c2b300e4
:100a1000040037004e0b90000628a30009003200a6
:100a2000b0c2b3008e239000804b78003e08900047
:100a30000000e900700f980011002000510f98008d
:100a4000100037004e0990000238a3000900320060
:100a500000c2b3008e219000804978003e0a9000c9
:100a60000402e900740f980015002000550f98004b
:100a7000040037003e0b9000760f98008003eb00d7
:100a8000570f98000800be000a01be00c0ff070013
:100a9000f4ff2f00f5ff2f00f6ff2f00f7ff2700d0
:100aa00004026000858260000603610087836100a4
:100ab0006000b8000200200003ff27000020e100d2
:100ac00001a8e10002b0e10003b8e10011003a0022
:100ad0000e4890008000fb001104b1000e21900030
:100ae000de09900003004100f98f500002003e0033
:100af00001cb20000100370041cb20003507070063
:100b000040cb200031ff07005e0a90000401400046
:100b1000150037000020e10001a8e10002b0e1006b
:100b200003b8e100130036008e4a90008500fb00f8
:100b30001104b1000e239000de0b9000070043006b
:100b4000f98f500002003e0081cb200001003700e9
:100b5000c1cb20001f070700c0cb20001bff0700f0
:100b6000de089000010140004e0a9000be0990008e
:100b7000500237006022b8006033b8000800be00a1
:100b80000a01be007b0707000000e0006a00320097
:100b90006022b8000600200007ff230044179800d9
:100ba0005517980066179800771798008006eb0095
:100bb0000800be000a01be00001f9800111f980027
:100bc000221f9800331f98000e2690000700370060
:100bd0008d06e8000802be000a03be004417980014
:100be0005517980066179800771798006022b8008c
:100bf00006002000470224004e109000de109000f6
:100c00006e119000fe119000ca0807000004be009b
:100c10000205be000002be000203be000e189000d6
:100c20009e1890002e199000be19900051070700e1
:100c30000000e000e6ff3d000c2798000006eb00f6
:100c40004e149000de1490006e159000fe1590007a
:100c50002500370040ed2f00808f560019003d0021
:100c60000c00e00016003a006022b80006002000e8
:100c7000073524000e1890009e1890002e19900041
:100c8000be199000ab0807000002be000203be00c0
:100c9000041f9800151f9800261f9800371f980002
:100ca0006022b80006002000073524000800be00be
:100cb0000a01be009f0807000004be000205be0036
:100cc0001c0020006022b80006002000470224001b
:100cd0000800be000a01be00e70707000004be00ce
:100ce0000205be008d06e9000802be000a03be0030
:100cf0000e1890009e1890002e199000be199000ba
:100d00001c0707000000e000d2ff35000800be000d
:100d10000a01be004017980051179800621798000a
:100d2000731798000e1c90009e1c90002e1d9000c2
:100d3000be1d9000080037006022b80006002000a9
:100d400007ff23004417980055179800661798006e
:100d5000771798008006eb008e4a90000500fb0094
:100d6000a3060700104f98006e0b90006000200053
:100d70000600e000010035006e08900071c6b30067
:100d80009e4b900081cf53000a003a00ee0890007d
:100d90000100e000cf013200cf0137008d0f50007d
:100da000d3013c00001f980052c6b300425f980078
:100db0001e0037009e499000435f980002003700f4
:100dc00064c6b300445f98000000e800001f98006c
:100dd00060c6b300ce5a900080cf520013003a0094
:100de0000d00e00008003d006000b8000200200097
:100df00003ff2300401798005117980062179800ce
:100e0000731798008006eb0061c6b300415f98003d
:100e100070c6b3001e499000804f5100030032009d
:100e20008e1990008d814100031f98004e12900092
:100e3000de1290006e139000fe139000441f980085
:100e4000551f9800661f9800771f98000800be0085
:100e50000a01be0000179800111798002217980089
:100e6000331798000006eb000802be000a03be001c
:100e7000540798006507980076079800070f9800b8
:100e8000310037004e1a9000de1a90006e1b900061
:100e9000fe1b90000e1090009e1090002e119000ee
:100ea000be11900074070700ce0a07000004be00c0
:100eb0000205be00d806070080027800250f9800c2
:100ec0004e1a9000de1a90006e1b9000fe1b9000e0
:100ed0000800be000a01be00160807000e129000ae
:100ee0009e1290002e139000be1390001107070071
:100ef0000002be000203be0007f0a2000417980023
:100f00001517980026179800371798006022b80028
:100f100006002000470224004e189000de189000c2
:100f20006e199000fe199000530707000002be00e2
:100f30000203be00441f9800551f9800661f9800ca
:100f4000771f98000c06e8008e1a9000850f560057
:100f5000ccff35005e049000ee0490007e0590000a
:100f60008e0d90006022b80006002000470124008a
:100f70004e189000de1890006e199000fe19900037
:100f8000ec0707000002be000203be00441f9800e9
:100f9000551f9800661f9800771f98000e1090004c
:100fa0009e1090002e119000be1190007106070057
:100fb0000000e0000f0035004e1a9000de1a90008d
:100fc0006e1b9000fe1b90000e1090009e10900073
:100fd0002e119000be119000660607000000e00090
:100fe00011003a00ae0a90000508a3000800320084
:100ff0000d0037006000b8006011b800401f980075
:10100000511f9800621f9800731f98000600370058
:101010006022b8006033b800441f9800551f980044
:10102000661f9800771f98004e1a9000de1a9000f5
:101030006e1b9000fe1b90000800be000a01be005f
:10104000c20607000002be000203be00041798009b
:101050001517980026179800371798006022b800d7
:1010600006002000470224004e109000de10900081
:101070006e119000fe119000ae0707000004be0044
:101080000205be000002be000203be000e1090006a
:101090009e1090002e119000be1190003a0607009d
:1010a0000000e000090035008d06e80060c6b300ce
:1010b000ce5a900080cf520008003a000e1b9000dc
:1010c0000603e800061f9800110037004e14900038
:1010d000de1490006e159000fe15900050c6b3000f
:1010e0004e599000804f510009003a000802be009e
:1010f0000a03be00441f9800551f9800661f980001
:10110000771f98008002eb00451798000700370012
:101110000800be000a01be00401f9800511f980041
:10112000621f9800731f98004d1798005e0e900084
:101130000001eb00220f9800320798005207980038
:101140000d0f78006a0037004e1a9000de1a9000ea
:101150006e1b9000fe1b90000e1090009e109000e1
:101160002e119000be119000c30607001d0a070053
:101170000004be000205be0027060700e90f50006c
:101180000100340090002000ce0990000348a30025
:101190000c003a000000e0000a003a0071c6b300fb
:1011a0001e4a9000814f520006003a00ce12900075
:1011b0000500e00003003d002e0b90008606e800cd
:1011c00023003700be0390000700e0000c003a0047
:1011d000ce1090000100e00009003d00e1c2b30024
:1011e0000e21900001717e000c06e800fe099000bf
:1011f0008301e900730f9800140020003407980061
:101200008e2290000c814200ae0e90008501780085
:101210000300370001c3b300015978008d06e900cf
:101220000d00e000fbff3a00032798002e0b900012
:10123000060646000043b00080717e000c06e80000
:101240000680ea00fe0b900080834300770f980031
:101250004e1a9000de1a90006e1b9000fe1b90004c
:101260000800be000a01be00320707000e129000ff
:101270009e1290002e139000be1390002d060700c2
:101280000002be000203be0007f0a200041798008f
:101290001517980026179800371798006022b80095
:1012a00006002000470224004e189000de1890002f
:1012b0006e199000fe1990006f0607000002be0034
:1012c0000203be00441f9800551f9800661f980037
:1012d000771f9800ce1290008502e900451798000c
:1012e0005e0390000603e800560798002d0f980053
:1012f000de0390000e189000808f530005003d0023
:101300009e0890004100900065005000800f56003c
:101310008dff39009e0678003e0190000200e0003b
:1013200007003a00ce0990000348a30004003200f1
:10133000e0c2b3000e22900000727e000c06e800ae
:101340008e2290000c8042000048eb0051c6b30092
:101350004e5b9000814f530038003a009e0390008e
:101360008700e9000041eb0082f278008001eb0089
:101370000d00e00002003d008d06ea001300200091
:101380002200200001037800fe0a90008e239000c6
:10139000000478000a00370001037800a400200050
:1013a000110009008406d800010278008006780048
:1013b0000443b00084737b000201e9008502e90068
:1013c0008600e9000d00e000f3ff3a000200e000b3
:1013d000f1ff3c00750f980007279800080078007f
:1013e00001824300b2c2b3000300e00001003200fa
:1013f000d2c2b300024a78000101e9008e219000b8
:10140000828041008e4a90000502fb001404b10066
:1014100053c6b300f90f520001003e0053c4b3009d
:10142000834878007e0b90000683e900760f9800d1
:10143000820f560001003d00e6040700ce0b90002d
:1014400063806300e20f500015003a007e089000b0
:101450000000e000120034000e209000dbfc0700ca
:101460008e219000040037007e09900082804100a8
:10147000e37078000000e900de0a9000850f50005c
:10148000f9ff3d0003279800058041007e09900088
:10149000010320006b0407000003eb00360f9800e7
:1014a0000e209000c9fc07004e0a9000be09900073
:1014b000000178008e2090002e009000520207005c
:1014c0004f06be004f05be004f04be000080fa006c
:1014d0000000060010002000e48f46002ffe3d00b3
:1014e000001f980057c6b300475f98004ffe3700b3
:1014f0000d00e00032fe3500001f980042fe37006c
:101500000200fa00889fbe008a9fbe008005780016
:10151000010478000200780018019000280590006e
:1015200098007800b1bf9f00b80490000200e0006e
:10153000020035000110a100b1bf9f00ea815700f1
:10154000820020008a0078003002be002003be0026
:1015500008007800490007003fb99700f0006100db
:10156000030032000000e90001c3b3008174780079
:101570003fb99700e8006100030032000000e90075
:1015800001c2b30081747800480190000201e900b3
:1015900000015100808044003fba97008a01780022
:1015a0000b007800180207009b0090000188a30040
:1015b0000400320098009000810f500001003d00af
:1015c000010078004f05be004f04be000080fa0005
:1015d00000000600ea874700889fbe008a9fbe0081
:1015e0008e1f78000004780003007800728757008f
:1015f00084e2260055c72600049fbe00c396220041
:10160000030f78006c875700004feb001105900026
:10161000a1049000910578000200e0000200320071
:101620000207780001003700728757000000e000d1
:1016300002003a000e00780064fc07000a00e00097
:10164000030035008a0f5000010036000a007800c0
:101650000b02780089017800000178008e00780084
:1016600008007800e80107004f0778004f05be002a
:101670004f04be00af00b10000000600f487470031
:10168000889fbe008a9fbe008c9fbe008e1f780080
:101690000605be000404be0081bf9f0082b79f0004
:1016a000f3b79f00b0009000e1b79f0013017800ee
:1016b00092b79f0090069000400090000000e90063
:1016c000000678000d00e00001003d001d00200034
:1016d0008040eb00efb19700817178001e00200080
:1016e0001f0037000c06e9000fb09700cf80de0026
:1016f0006109b900a0b79f00b1b79f00c2b79f00b2
:10170000d3b79f000203be000002be000800be0067
:101710000a01be00c8070700000778000e407800e5
:101720000043b000efb0970080707e008d06e900a6
:101730000fb997000201e90082bf9f002fb2970006
:10174000bfb297004fb39700dfb397000800be0009
:101750000a01be00b10707000205be000004be007a
:101760000c00e0000d003400e00f5400e08f5c003e
:10177000e00f5d00e08f5d00daff3a000d00e00051
:10178000d8ff3c008fb997000300e000030034004d
:101790001fb097000018a300d2ff3a000e00e0002f
:1017a00002003a00ffb097001140a1000c00780041
:1017b0004f0778004f06be004f05be004f04be0025
:1017c0004f01b100000006000200fa00889fbe0031
:1017d0008a9fbe00000578000104780002007800ae
:1017e00018019000a804900098007800b1bf9f00f5
:1017f000b80590000200e000020035000110a100d1
:10180000b1bf9f00ea815700a20020008900780044
:101810003002be002003be000800780097ff0700da
:10182000480190000201e90000015100808045005c
:101830003fba9700890178000a007800720107001a
:101840009a0090000188a3000400320098009000e4
:10185000810f500001003d00010078004f05be00df
:101860004f04be000080fa0000000600fa8747001f
:10187000889fbe008a9fbe008c9fbe008e1f78008e
:101880008004780001047800820578001801900037
:101890002805900018077800b80090000200e000ca
:1018a000020035000e10a1000100370012002000d8
:1018b00070006700e0b79f00090032003b02be00e5
:1018c0002b03be00e00f5200e08f5a00e00f5b00d8
:1018d000e08f5b00020032008a86e90001003700d9
:1018e0008a067800e8026700f5b79f000100320021
:1018f0008d06e9003b02be002b03be00e4af9f0053
:10190000f5af9f0086b79f0097b79f0048069000ed
:101910000c06e9000040eb0080707e00efb29700fb
:101920007fb297008903780081047800d8af9f00c8
:10193000020478008bbf9f008a0578000345780079
:101940002a0037000c06e9006fab97006f006300b8
:10195000e90f500002003c000003b0000100370016
:101960007005b0000a03fb001604b100f90f530024
:101970000c003e00000378000650a0001606b100df
:10198000f90f530007003e00b4b79f00a5b79f00b2
:10199000c7b79f009d030700cfb39700afb2970072
:1019a0003fb2970080747e000804e9008d06e900cc
:1019b0006fa89700ffa897000fb197009fb19700fd
:1019c000460020008301d1000281d3008180d30032
:1019d0000080d3000603e900faff3a00e0af9f0061
:1019e000f1af9f0082b79f0093b79f00e10f5600b1
:1019f0000f0034006fa89700ffa897000fb1970061
:101a00009fb19700e00f5000e08f5800e00f5900a1
:101a1000e08f5900cbff3a000800e000c9ff3c000e
:101a20000d00e000020034000e18a300c5ff3a00cc
:101a300089007800f4b79f00870478005fac9700b6
:101a40008a4178000b0578008fbd97000500e00003
:101a5000100032003b02be002b03be00e4af9f002b
:101a6000f5af9f0086b79f0097b79f00e00f520029
:101a7000e08f5a00e00f5b00e08f5b000500320052
:101a80000c06e90083707e000c06e90000c3b30079
:101a900080707e00ffb297000500e0000300320076
:101aa0000c06e90000c2b30080707e00480190007f
:101ab0000201e9000c0151008c8040000e02780008
:101ac0008a01780009007800cf0007009900900093
:101ad0000188a3000400320098009000810f50009c
:101ae00001003d00010078004f0778004f06be005e
:101af0004f05be004f04be00af01b100000006005c
:101b00008201780001017800f1ff270046033700c9
:101b1000881f78000004780000082000808f5000a3
:101b20001700350010082000808f50000b00340093
:101b300030082000808f500011003a009200780099
:101b400068805000000978003002be002003be000b
:101b5000049cbe000694be00070037009202780085
:101b600064805200000978001000be008b0307005b
:101b7000009cbe000294be0010002000010037004f
:101b80000000eb004f0478000000060084082000ed
:101b9000848f50001d0032000d003c00140820000e
:101ba000848f50002700320002003c00040820000f
:101bb0000400370024082000848f500034003200d5
:101bc00044082000848f500043003a00360037005c
:101bd000040a2000848f50002700320004003c00db
:101be00004092000848f50003b003a002800370091
:101bf000020c2000828f50002f003200020f2000c4
:101c0000828f500034003a002b0037009380e900a7
:101c10000200e00005003200810978001102fb009b
:101c2000cfa2de00612bb9002800370081097800bf
:101c3000114278000482fb008002eb006033b800a0
:101c40002200370013027800e40052000200e00096
:101c500005003200810978001102be004fabde00a2
:101c60008603780019003700810978001102be0050
:101c70006033b800150037009380e90081097800cf
:101c800011027800cfa2de00612bb9000f003700ef
:101c900093027800e8805200810978003102be008a
:101ca0002103be00090037009380e9000200e00034
:101cb00002003200f1ff37009380e90081097800cb
:101cc000110278008002eb006033b8000498be0077
:101cd0000690be001000050000000500440820002a
:101ce000848f50002500320008003c0014082000ba
:101cf000848f50001400320024082000848f50008c
:101d000024003200040820000c00370004092000e1
:101d1000848f50001f00320004003c008408200023
:101d2000848f500024003a000e003700040a20007f
:101d3000848f500011003200040c2000848f50006a
:101d40001d003a000d0037009380e90081097800fa
:101d50009100780001087800cf91de008288be00f3
:101d6000140037009380e900810978009100780021
:101d700001087800824878000e0037009380e9005f
:101d800081097800910078000108780082087800c5
:101d9000080037009380e9008109780091007800fd
:101da000010878006112b900612bb9008498be0067
:101db0008690be001000050000000500889fbe0050
:101dc000000478004800900082047800808f54005e
:101dd0000100360080047800090178005800900066
:101de00073fa070058009000090040005004980062
:101df000c800900089845000490498000048eb0016
:101e00004f04be0000000600f2874700889fbe0016
:101e10008a9fbe008c9fbe008e1f780080047800d1
:101e200001057800020478008305780061076200ec
:101e300002003a008b0f54000800390008017800b6
:101e40008a00780009007800dcff07008b0f54003f
:101e500002003900880578001e003700088655000a
:101e60000c017800f00f560001003600020120003e
:101e7000010220007e805700f20107008c067800e6
:101e80000500370002012000fe805700090078009d
:101e9000caff0700f0865600ef8f5600f9ff3e009c
:101ea0004461de0000ff2f000091b90002014600ee
:101eb000fe80570009007800c0ff07000e00e00018
:101ec00004003a00080178008a00780009007800d0
:101ed000baff07000b0078004f0778004f06be00de
:101ee0004f05be004f04be002f01b10000000600e8
:101ef000000005000000050000000500000178005a
:101f00000040eb008080fb0081804000e3c42000a3
:101f100063c278000404e00003003a00f0c420002b
:101f200060c078000000060092017800934f5200d4
:101f300004003a00f0c4200060c078000309e80003
:101f4000010037000040e800ea4f5000edff360086
:101f500000000600f6874700889fbe008a9fbe00eb
:101f60008c9fbe008e1f7800000578000104780069
:101f700083057800040678000000eb00c0b79f00de
:101f80008080eb00d1b79f00e0b79f00f2b79f00c1
:101f90000008200080bf9f009800780001007800b2
:101fa0008004eb00010037008904e800304178002c
:101fb0000204e0000300320053c2b300834f51001b
:101fc000f9ff3a000900e00004003200090178003e
:101fd0000a00780079ff0700188c44001807780081
:101fe00050c2b3009e4f10003f013a000e07e800b8
:101ff0000e0c780010003700cfb097000100a00051
:102000000b003700cfb097000110a0000800370088
:10201000cfb097000120a00005003700cfb0970097
:102020000130a00002003700cfb097000140a000af
:10203000c1b79f00000ce8001800780090407800bd
:10204000b2c2b30082cf5000f1ff320007003c0063
:1020500002c2b30082cf5000f0ff320032c2b300a0
:1020600082cf500007003a00efff3700d2c2b30022
:1020700082cf5000e0ff320002c3b30082cf500095
:10208000e0ff3200a2c2b30082cf50000d003a0040
:10209000000ce8001c80e900000e780010007800b9
:1020a000e0b79f000000e0000f003d00cfb09700b8
:1020b0000100a200c1b79f000000ea00e0b79f0046
:1020c0000900370039010700e0b79f000100370021
:1020d000000ce800180078009000fb000103b1003c
:1020e000e98f5000faff36004fb097000008a300b8
:1020f000020032000010a100c0b79f001800780055
:10210000e1c2b30090cf100016003a008000eb004f
:10211000d1b79f000000e800000c7800a1c2b30016
:1021200090cf100006003a00000ce8001c80e90087
:10213000000e780010007800d0b79f00090037002b
:102140001a010700d0b79f0001003700000ce8001b
:10215000180078009000fb000103b100e98f5000e7
:10216000faff36000800780064ff07008046780018
:10217000180078001000fb009d0107009106200068
:10218000810f50003800320012003c004106200050
:10219000810f5000340032000a003c00110620007c
:1021a000810f50002000320031062000810f5000c6
:1021b000a000320051022000810f5000bc003a0004
:1021c000b400370071062000810f5000b8003c00b9
:1021d0008800370001072000810f50005c003200aa
:1021e00007003c00e1062000810f50007a00320019
:1021f000f1062000810f5000ad003a003900370091
:1022000051072000810f5000270032008107200075
:10221000810f50004200320031072000810f500032
:10222000a3003a008f0037008d80fb000c0178007e
:1022300000fe2f000f00400035fe07000000e00008
:10224000a800320018007800000ce80090417800e7
:1022500002fe2f000f014100f88057000a007800ad
:1022600024ff07000e0037008d80fb008c017800f2
:102270001200200000fe2f000f00400043fe070068
:102280000000e00097003200180ce80002fe2f006a
:102290000f014100f88057000a00780063f9070039
:1022a00080844400900037008d80fb008c01780012
:1022b0000001eb0000fe2f000f00400033fe07007e
:1022c0000000e00087003200180ce80002fe2f003a
:1022d0000f014100f88057000a0078003afd07001e
:1022e000efff37008d80fb008c0178000001eb00d0
:1022f00000fe2f000f00400024fe07000000e00059
:1023000078003200180ce80002fe2f000f01410097
:10231000f88057000a00780079fc0700e0ff3700da
:102320008d80fb008c0178000001eb0000fe2f0087
:102330000f00400015fe07000000e00069003200b9
:1023400018007800000ce800904178001c0037006d
:102350008c0178000001eb00010f200000fe2f002f
:102360000f00400009fe07000000e0005d003200a1
:10237000180ce8000fb097009fb097002fb197009e
:10238000bfb19700e00f5000e08f5800e00f5900f8
:10239000e08f590009003a00cfb597006fb497005d
:1023a00060c4200009f907000b027800880178005a
:1023b0000001780061c420004700370083c7b300e4
:1023c00002fe2f000f014100f88057000a0078003c
:1023d00026fd0700b2ff37000b8144008d80fb0013
:1023e0008c01780000fe2f000f0040003bfe07002c
:1023f0003c0037008d80fb000c01780000fe2f00b0
:102400000f004000c2fd07000000e0003500320070
:1024100018007800000ce8009041780002fe2f00c0
:102420000f014100f88057000a00780059f90700b1
:102430009bff370000c8b30080cf560029003a0048
:10244000180ce8001c80e900000e780010407800ad
:10245000e0df9f0013002000e2fd2f000f0141008c
:102460000800370000c8b30080cf56001d003a00b6
:10247000180ce8001c80e900000e78008001eb00d9
:1024800010017800f88057000a00780051fc07001e
:1024900083ff370000c8b30080cf560011003a0018
:1024a000180ce8004fb29700efb197000800370012
:1024b0000e0c78000000eb00c0b79f00e0b79f0053
:1024c0000080eb00d0b79f000002eb008401780091
:1024d00012002000c1c420000a0078004afe070054
:1024e0006fff3700180ce800090078004f077800ec
:1024f0004f06be004f05be004f04be006f01b10085
:10250000000006008200fa00889fbe008a1f780043
:102510000005780082047800c13f9f000004eb00b2
:10252000100037000902780088017800a2f72f0018
:102530000f01410081f72f008f8040000a007800d2
:1025400084fe070008004000880f500004003d0092
:10255000b0042000106688000084eb0004003700ff
:10256000000478004f3897001004e000edff3a00b7
:10257000080078004f0578004f04be000080fa0084
:1025800000000600800078001000200002022000f9
:10259000828f500004003200e9805000e48f500028
:1025a000010036000000eb0000000600889fbe001e
:1025b0008a1f7800000578000a04780098447800a3
:1025c0000805e8000900fb00eeff07000000e0003e
:1025d000f9ff3a00b0c2b30080cf540005003200ca
:1025e000d0c2b3008000eb0080cf540005003a0059
:1025f000020037008000eb000100370011002000ce
:102600000804e8000000eb00030037006a02b9008c
:10261000020052000003b0003801fb0003fd2f0050
:1026200082814100e98f5100f8ff36000100e0008f
:1026300001003a000000ea004f0578004f04be0098
:1026400000000600889fbe008a9fbe0080047800bc
:102650000200e0005b00320001407800814c78000d
:1026600082814400f1f99f00e20f510055003600cd
:1026700091449800a1449800e1f99f00d1f99f008e
:10268000e60f51004f003600b1449800c1f99f0099
:10269000e80f51004b0036000905ea0063056500ac
:1026a0000a8444000a055100c1ff2f00010565009e
:1026b0000080fb008000eb001210200013102000af
:1026c00016010700008cbe000a01440060b99f009b
:1026d00071b99f00e80f55003a00360020049800b9
:1026e00031049800400498005104980020b99f00dc
:1026f00031b99f0040b99f0051b99f00f80f5500b4
:10270000300036006004980071049800000c9800b6
:10271000110c9800200c9800310c9800400c980087
:10272000510c980020b19f0031b19f0040b19f0033
:1027300051b19f0060b19f0071b19f0000b99f002f
:1027400011b99f0064016400780141000204440053
:10275000020555006011b8000203be000002be0071
:102760000403be006022b800000072008180720085
:10277000020173008381730010003700009cbe00cb
:102780000294be004004980051049800620498002e
:1027900073049800000c9800110c9800220c98000b
:1027a000330c9800400c9800510c9800620c980073
:1027b000730c98000a02b1000802b000ff0f550028
:1027c000eeff3e00090078004f05be004f04be003a
:1027d00000000600881f78000004780008007800d8
:1027e00036000700080078004f047800000006005b
:1027f000f1fb2f0080804000f98f500001003e0067
:102800000050a00000000600f9ff3700f1f92f008a
:1028100080804000f98f500001003e00f005b200ba
:1028200000000600f9ff3700f28747008e1f78008e
:1028300002027800030178000000e000020032008c
:102840000007780001003700728757008002eb0014
:102850000100e000010032008102e90070805700b1
:10286000060009000018eb000080eb0080bf9f000d
:102870002310200093bf9f00aebf9f00b1bf9f00f9
:10288000c5bf9f000100e00003003d00b10420002f
:102890001166880006003700004feb00eebf9f0076
:1028a000debf9f008400780070805700230007007f
:1028b0004f0778002f01b1000000060001017800e9
:1028c00080017800008268000408a300050032003f
:1028d0001300370032407800805978000004e0008f
:1028e00014003200030278000208a300f9ff3a0046
:1028f0000300780001003700031878008200780098
:10290000b2017800f5ef2f00838242000382ea00d3
:10291000048262000508280005026200f6ff32000a
:102920000002780031417800025878000204e0008b
:10293000fbff3a0004007800000006000200fa00e5
:10294000881f780000047800e2bf9f006481570070
:1029500008007800ebfe0700980090000148a300f3
:10296000010032000080eb004f0478000080fa0084
:10297000000006008f1fd100910307008f87e90038
:102980000000e00000000600809feb008c030700c1
:102990008f87e9000000e000000006008103780056
:1029a000490007000001be006000b8000478a300e1
:1029b00013003a006220e10015003e000d003900ce
:1029c0008301d1000281d3008180d3008301d10033
:1029d0000281d3008180d3008301d1000281d30022
:1029e0008180d3000538b000c42add00f300b200b6
:1029f0008381720007f0a70003f0a000000006002a
:102a000083ff2700020020006110b900f9ff3700a2
:102a100003ff2700f7ff37001400fa00889fbe006d
:102a20008a9fbe008c9fbe000004be000205be004f
:102a3000680047000a90be000890be009b03070094
:102a40000070a7000bf0a100304320009e02900010
:102a500080825200b0fe2f000028e10011003d00ee
:102a6000b0fc2f000028e100150034001e09900082
:102a70008e0890007e0090000501b0000201d10098
:102a80008180d3000080d3008502e800fbff3a007c
:102a90000b00e000c0033b0060001000e080180065
:102aa000bd033700f0ff2f00f1ff27000b00e0000f
:102ab000b9033b000100280000002000b6033700e6
:102ac0006000b800b4033700c70ade00f107b200a7
:102ad000f50fb20008003200e1cf420002003200e0
:102ae0000170a00024000500810f70000100320079
:102af0000408050044000500810f700002003a0040
:102b0000140005008502e9000000400081c0480073
:102b1000fcff3b000170a00024000500020ab90080
:102b2000001bb9000200b800810042008100430090
:102b3000000006008c9fbe008a9fbe00889fbe00da
:102b4000ca0107000bf0a200040037008c9fbe00f2
:102b50008a9fbe00889fbe00c40107000c48e100a8
:102b60000b003a000c40e100020032008b0107002c
:102b7000400037008b066d003e0032000af0a100d5
:102b8000f3012000f2ff2f006110b9003900370077
:102b90000c40e100370032000940e100010036003e
:102ba0007e0107008a856d00cf5dde000b05750094
:102bb0000006eb008804fd00890454000100320087
:102bc0007d0107000a04e00011003a000800e0005f
:102bd00028003200040040008580480006014900ba
:102be000878149000358a300180032008301d100f7
:102bf0000281d3008180d3000080d3000c86d300f3
:102c000001003900610676000804e800180037006a
:102c10000400500085805800060159008781590042
:102c2000060031000af0a2000c06ea00600018005d
:102c3000e080180060011900e081190003003a00eb
:102c40000004eb000005eb000a0037000348a30076
:102c500007003a000c06460000004800818048004a
:102c600002014900838149000804e900f7ff3700a9
:102c7000af013700c90137008c9fbe008a9fbe009c
:102c8000889fbe00790107000b056d000940e10037
:102c90000a003a000800e000020032000c40e100a7
:102ca00006003a000af0a1000c047800f3012000ad
:102cb000f2ff2f006110b9009d0037000c40e100c9
:102cc0009b0032000800e000990032000c48e1004f
:102cd00002003a000004eb00030037000900e000a6
:102ce00004003a000c0478006000b8006011b800dd
:102cf0008f0037000348a30006003a0000004000a0
:102d00008180480002014900838149000804e900ec
:102d1000f8ff37000748a30006003a00040242000b
:102d200085824a0006034b0087834b008904e90033
:102d3000f8ff3700fd3f20008d8454000904540043
:102d40008a1f7800881f78000004780081047800ca
:102d500002057800830578006000b8006011b800b3
:102d60000d042000050037000804440089844c004d
:102d70000a054d008b854d00080031000404540005
:102d800085845c0006055d0087855d008381d20037
:102d90008d06d300f4ff3b00070037000404440015
:102da00085844c0006054d0087854d008381d20047
:102db0008d06d300ecff3b000804440089844c00de
:102dc0000a054d008b854d000800310004045400b5
:102dd00085845c0006055d0087855d000281d20068
:102de0008d06d300f4ff3b000700370004044400c5
:102df00085844c0006054d0087854d000281d20078
:102e00008d06d300ecff3b000804440089844c008d
:102e10000a054d008b854d00080031000404540064
:102e200085845c0006055d0087855d008180d20099
:102e30008d06d300f4ff3b00070037000404440074
:102e400085844c0006054d0087854d008180d200a9
:102e50008d06d300ecff3b000804440089844c003d
:102e60000a054d008b854d00080031000404540014
:102e700085845c0006055d0087855d000080d200ca
:102e80008d06d300f4ff3b00070037000404440024
:102e900085844c0006054d0087854d000080d200da
:102ea0008d06d300ecff3b000b00e00004003d006a
:102eb0000404440085844c0006054d0087854d00c0
:102ec0000006eb008301d1000281d3008180d30092
:102ed0000080d3000c86d3008301d1000281d3008f
:102ee0008180d3000080d3000c86d3008904740055
:102ef0008b0575008b84740001003200610676003a
:102f00004f0478004f0578000348a30007003a00fb
:102f10000c0646000000480081804800020149007c
:102f2000838149000804e900f7ff370000013700fa
:102f30001a0137008c9fbe008a9fbe00889fbe008a
:102f4000ca0007000b056d008a0578000c40e100ff
:102f500008003a000900e00082003a000af0a100ef
:102f60000c047800f3012000f2ff2f006110b9007b
:102f70007c0037000c48e10004003a00870007009d
:102f80000900e00077003a00f4ff37000800e00095
:102f9000740032000900e00002003a007f000700e0
:102fa00070003700ed3f20008d8454000904440078
:102fb0008a1f7800881f7800871f7800861f780096
:102fc000851f7800841f7800cb19dd00c515de0051
:102fd0008b8571004b11dd00450dde000a05710087
:102fe000cb08dd00c504de00898470004b04dd00e1
:102ff0000440b8000546b8008c80400060814e0057
:10300000044eb8008c8040000d0149008001eb00a7
:103010000318ad000456b8000c0141008d81490031
:103020000002eb000420ad000646b8000c01410090
:103030008d81490060024a00054eb8000c01410034
:103040008d81490060024a000556b8008c8141001c
:103050000d024a008002eb000528ad000746b800cb
:103060008c8141000d024a00e0824a00064eb80001
:103070008c8141000d024a00e0824a004f06780030
:103080000c5eb8008c8141000d024a00e0824a00cb
:103090000656b8000c0242008d824a000003eb0085
:1030a0000630ad00074eb8000c0242008d824a0087
:1030b00060034b004f0678000c5eb8000c02420023
:1030c0008d824a0060034b000756b8008c82420094
:1030d0000d034b008003eb000738ad004f0678006e
:1030e0000c5eb8008c8242000d034b00e0834b0065
:1030f0004f0678000c5eb8000c0343008d834b0034
:103100004f0478004f0578000748a3000a003a00f2
:10311000000040008180480002014900838149008d
:1031200004024a0085824a0006034b0087834b0055
:103130000804e900f4ff370003067800808070007f
:1031400082807000010032006106760087017800fd
:103150000601780085007800040078008804780073
:10316000780037008d0037008c06460002003a00d8
:103170000000a6000000060060004800e080480053
:1031800060014900e08149000350a60000000600ec
:103190008301d1000804e800000006000002fd00e1
:1031a0008102fd000203fd008303fd008804fd0091
:1031b0008a05fd00000006007048e1001a00390091
:1031c0007d0320000d48e1000a00390081057000f0
:1031d000830671008c8575008d8575000006eb00f7
:1031e0000cd8e700610676006000b8006011b800f6
:1031f000000006007048e1000b0039008c057800e3
:103200000006780001007800820078000301780051
:103210008001eb0003d8e70061067600f0845400db
:10322000f4ff3a00000006006160e1000c48ad00c8
:10323000f08514008b06dd000966de000d067600c1
:103240008b0edd000900de000d0070008b16dd0026
:103250008908de008d8070008b1edd000911de0004
:103260000d0171008919de00000006000d00280024
:10327000fc7f20000d856100441cde00ef816100b1
:103280000c046400010032000340a0008d8563003f
:10329000c43cde00ef8363008c84640001003200d4
:1032a0000740a0000c40e10006003a00ef866100f4
:1032b0008286760081867600808676000100320064
:1032c000180037000c48e10007003a00ef86630061
:1032d0008686760085867600848676000200320037
:1032e000aeff07000f0037000348a30005003a00b7
:1032f00081067000828676008386760001003200a7
:103300000804e8000748a30005003a00850672009b
:103310008686760087867600010032008904e80000
:1033200000000600cf047800cf0578001b003700ae
:10333000000278008102780002037800830378009d
:10334000880478000cf0a70087ff0700fd7f2000ad
:103350000d40e100040035000d0478006000b80065
:103360006011b8000d0037000800e0000b003c00c1
:103370000400780085007800060178008701780055
:10338000e18414008cff07000cf0a70076ff070013
:103390000004eb000340a7000804e8004444dd00fb
:1033a0006fc56100880175004f04be004f05be0067
:1033b0004f06be0000000600889fbe008a9fbe0028
:1033c00030044200b0844a0030054b0090854b0029
:1033d0006000b1000898be000a90be000440e10001
:1033e00005c8e10006d0e10007d8e1000200310085
:1033f000680040001008e8004f05be004f04be0002
:1034000000000600889fbe008a9fbe003004be00f8
:103410002005be000418540005985c0006185d00e5
:1034200007985d00110020000440e10005c8e1009c
:1034300006d0e10007d8e100010039008000eb0070
:10344000108810004f05be004f04be0000000600ab
:103450001200fa00889fbe008a9fbe008c9fbe00ab
:10346000e0b79f00f1b79f0082bf9f0093bf9f000e
:103470000605be000404be000000eb00d0b79f00ac
:10348000c0b79f00b0b79f00a0b79f0090b79f0044
:10349000000678005fb19700cfb09700820141002d
:1034a0003fb097000200e00004003d003700070035
:1034b0007e805700c0ff070003003700330007007d
:1034c0007e805700cfff0700dfb697000d00e000b9
:1034d0000c0035006fb29700ffb297000fbb97004a
:1034e0009fbb970010002000010020006011b80071
:1034f00000027200818272000203730083837300f2
:103500001b0007000c06e80001042000810f560094
:10351000e0ff3a000d00e00004003d000802be009c
:103520000a03be007e805700a3ff07005fa8970034
:103530000000e00005003a001fb29700afb297000c
:103540003fb39700cfb39700090007006fb0970013
:10355000ffb097000fb997009fb997004f06be00c4
:103560004f05be004f04be000080fa0000000600b8
:103570000100070000000600a4b79f00b5b79f0038
:10358000c6b79f00d7b79f00000006004f09de00b6
:1035900082817100b3b79f004f01de00818040003f
:1035a00082807000a1b79f008fb097004f09de00a6
:1035b000000040000200700090b79f007fa89700b5
:1035c0004f01de00818040008280700081b79f0043
:1035d0000d0007004f3ade000000400004007000bc
:1035e000f0af9f00080007000402420085824a00f5
:1035f00006034b0087834b00dfff07000802be0075
:103600000a03be00000006002fb29700bfb2970069
:103610004fb39700dfb3970000000600881f7800c3
:1036200018002000881f780089ff07008f87e900b5
:103630004f04780000000600801feb0084ff0700a5
:103640008f87e90000000600889fbe008a9fbe00a9
:10365000e00f5000e08f5800e00f5900e08f590054
:103660000c003d006044b8006055b80000005400f4
:1036700081805c0002015d0083815d0018002000f4
:103680001500070008003d00180007000004eb00cb
:10369000050037000004eb000f00070002003d00aa
:1036a0001200070018002000dcff07000800e000ff
:1036b000060032006022b8006033b80000005200fb
:1036c00081805a0002015b0083815b004f05be00d0
:1036d0004f04be0000000600e00f5200e08f5a00c9
:1036e000e00f5b00e08f5b00000006006044b80064
:1036f0006055b8000402540085825c0006035d003a
:1037000087835d0000000600889fbe008a9fbe0080
:103710008c1f7800e00f5000e08f5800e00f590038
:10372000e08f59000d003d006044b8006055b800be
:103730000000540081805c0002015d0083815d0017
:103740001c0020000820e10009a8e1000ab0e10007
:103750000bb8e1000d003d00080037000006eb004b
:10376000e00f5200e08f5a00e00f5b00e08f5b003b
:1037700006003d006044b8006055b80004025400e3
:1037800085825c0006035d0087835d00aaff070059
:103790000c00e000060032006022b8006033b80080
:1037a0000000520081805a0002015b0083815b00af
:1037b0004f0678004f05be004f04be000000060013
:1037c000889fbe008a9fbe008c9fbe000404be007e
:1037d0000605be00809fbe00829fbe00210007003c
:1037e000040678000800be000a01be001d000700a4
:1037f000840678004f03be004f02be008d4f760056
:103800007fb0970013003300f0ff2f008b8f6b0009
:1038100006003b000d0666000c00a7000a003700fa
:1038200007f0a600100020000a003700880f5200a1
:10383000898f5a008a0f5b008b8f5b000300390071
:103840001000200001003e000000200007f0a7004b
:103850000000ea004f06be004f05be004f04be0048
:103860000000060005ff2700058261000700320006
:103870000428e100010032002400050006000700d2
:1038800001003a004400050004080500020007009a
:10389000f9ff3a00140005006f8261008102700098
:1038a0008502710085027200000006008000780029
:1038b0005002be005003be004439de00f700b200e3
:1038c000f37f200003016100090032000218e100cb
:1038d00016003a0085017200830173008381730032
:1038e0000008200015003a004000200013003700b7
:1038f00085017200830173008381730005003a0023
:1039000004a8be0006a8be00100020000b0037006f
:103910000201e9000402420085824a0006034b00ce
:1039200087834b000748a300f9ff32000740a0003f
:1039300004a8be0006a8be00200020008000980059
:103940009200980000000600680447000294be0040
:103950000094be00fc0447008694be008494be0020
:1039600009007800d1ff070008007800cfff0700aa
:1039700099007800814f70000b003b000800be00ea
:103980000a0007004f00b10003003700f3ff2700d3
:10399000f2ff2f006110b9004f06be004f05be00b8
:1039a0004f04be000080fa0000000600e4824000e0
:1039b0001078a30007003200640240001178a300d1
:1039c0003400be001401be00040032000330a70022
:1039d000000006003500be001501be000330a00047
:1039e000000006001800fa00889fbe008a9fbe00f3
:1039f0008c1f78000004be000205be000802be0055
:103a00000a03be00443ade00f07f20000006620098
:103a100020432000800f560067003c006022b80061
:103a20006033b8000800be00d2fb07000000e000d1
:103a3000610032000802be000a03be00b4b79f0056
:103a4000c5b79f00d6b79f00e7b79f00e00f5200b1
:103a5000e08f5a00e00f5b00e08f5b000b003d0041
:103a60006022b80006002000073324000800be00d2
:103a70000a01be002ffc07006022b80006002000eb
:103a80000733240031fc07000a0037006022b80029
:103a900006002000073324000800be000a01be0013
:103aa0002afc07006022b80006002000073324002b
:103ab00020fc07000802be000a03be001dfc070030
:103ac0000002be000203be00f4b79f0085bf9f0046
:103ad00096bf9f00a7bf9f00e03f2000800f5600c9
:103ae00017003c007fb097008fb897001fb9970070
:103af000afb99700f0af9f0081b79f0092b79f00ca
:103b0000a3b79f006044b8006055b8003fb297006b
:103b1000cfb297005fb39700efb39700e00f52006a
:103b2000e08f5a00e00f5b00e08f5b0022003d0059
:103b30006044b8000a0020000bff2b001e00370075
:103b40006022b8006033b8007fb097008fb897004c
:103b50001fb99700afb997008bfb07000000e0008a
:103b60000c0034007fb297008fba97001fbb9700fc
:103b7000afbb97000800be000a01be00f3fb0700c0
:103b80006022b8000600200007ff2300e9fb0700c1
:103b9000070037007fb297008fba97001fbb9700ce
:103ba000afbb97000800be000a01be00e7fb07009c
:103bb0000004be000205be000800be000a01be00ef
:103bc0004f0678004f05be004f04be000080fa008b
:043bd00000000600eb
:020000040000fa
:103bd4002564000000250000660000002563000045
:103be4000025000073000000252500002563000067
:103bf40000680000656c00006c6f00000058000055
:103c0400696e000020630000686100006f200000fe
:103c140025640000202500006620000025630000c4
:103c240020250000730a00000002000002020000c8
:103c340002020000020200000200000057350000ea
:0c3c4400353000003000000000000000df
:020000040000fa
:103c50000600fa00004f78001147980012079800fc
:103c6000434798001e407800e84f5000020036009d
:103c700000c0eb00a60037001e4090000080fb0053
:103c8000e40f50000b003e00110020000008dd0092
:103c9000760060000000e000060032004e40900018
:103ca0000080fb00660060000000e00003003a00b6
:103cb00004003700b0cfb30095003700a0cfb300a9
:103cc000930037004e4090000004e00029003200cd
:103cd0001e4090000080fb00e10f50000300320006
:103ce000e20f500009003200220037004e409000e1
:103cf0008080fb0010022000008060000000e000d7
:103d000017003a00a0cfb300810037004e4090006a
:103d10008080fb0000022000008060000000e000c6
:103d2000050032004e4090000004e0000200350023
:103d3000a0cfb300760037004e4090000080fb001b
:103d4000700060000000e000070032004e4090006c
:103d50000004e00006003500a0cfb3006c0037007f
:103d600000000000030037000000000001003700e1
:103d7000000000001e40780067000700ce40900061
:103d800000cfb30080c060001e40900000c07000f3
:103d9000004178001e80fb004200dd000000e800ca
:103da0004300dd00cf80de006a0c07001e0090009b
:103db0000000e00009003a00504080001007980021
:103dc0000000e8005040880050408000f00f4000a4
:103dd00002003a0000002c00504088001e009000b5
:103de0004800de00004178001e80fb004200dd003c
:103df0000000e800c300dd0000402000008040001b
:103e0000cf80de00530c07001e00900000417800b8
:103e10001e80fb004200dd000000e800c300dd0062
:103e20000050200000804000cf80de00490c0700d9
:103e30001e80fb004200dd000000e8004300dd00c2
:103e40000010b000cf80de0012c0b300410c0700ac
:103e5000000000001e80fb004200dd000000e800c2
:103e60004300dd000010b000cf80de00fb0b070038
:103e70000004e000f7ff3a004e4090000080fb0095
:103e8000e10060001e80fb000008dd00800078007b
:103e90002040800001007000204088001e80fb0050
:103ea000110020000008dd000080ea00800078009a
:103eb0003040800000806000304088001e80fb00a1
:103ec0008000400000c82000008040008000eb001f
:103ed000010878001e80fb0001c920000041eb00b2
:103ee00082707800000000001e80fb004200dd00b0
:103ef0000000e8004300dd000030b000cf80de00ad
:103f0000d60b07000004e000f7ff32001e407800e7
:103f10000080fa00000006000200fa00004f78005e
:103f20001e407800e84f50000200360000c0eb0051
:103f3000370037001e80fb004200dd000000e80073
:103f40004300dd000010b000cf80de0002c1b300ee
:103f5000000c0700000000001e80fb004200dd0096
:103f60000000e8004300dd000010b000cf80de005c
:103f7000ba0b07000004e000f7ff3a001e80fb00c8
:103f80004200dd000000e8004300dd000020b0003a
:103f9000cf80de00f2c1b300ee0b07001e80fb00f5
:103fa000110020000008dd000080ea008000780099
:103fb0003040800000806000304088001e80fb00a0
:103fc0008000400000c82000008040008000eb001e
:103fd000010878001e80fb0001c920000041eb00b1
:103fe00082707800000000001e80fb004200dd00af
:103ff0000000e8004300dd000030b000cf80de00ac
:10400000960b07000004e000f7ff3a0010c0b30071
:104010000080fa00000006000200fa00004f78005d
:104020001e407800e84f50000200360000c0eb0050
:10403000410037001e80fb004200dd000000e80068
:104040004300dd00cf80de00840b07000080fb0012
:104050006f006000e10f500002003200b0cfb300eb
:10406000350037001e80fb004200dd000000e80044
:104070004300dd000030b000cf80de00770b07008a
:10408000f34f500002003200d0cfb3002a003700b7
:104090001e80fb004200dd000000e8004300dd0060
:1040a0000010b000cf80de0022c0b300a90b0700d3
:1040b000000000001e80fb004200dd000000e80060
:1040c0004300dd000010b000cf80de00630b07006e
:1040d0000004e000f7ff3a000d0037001e80fb00ef
:1040e0004200dd000000e8004300dd000010b000e9
:1040f000cf80de00590b07000004e00004003a0006
:104100001e40780084ff0700c0cfb3000a003700cc
:104110001e80fb004200dd000000e8004300dd00df
:104120000030b000cf80de004c0b0700f44f500091
:10413000eaff3a0010c0b3000080fa000000060059
:104140000a00fa004047980031079800420798009b
:104150004e409000e84f50000200360000c0eb00d7
:10416000b60037004e4090000080fb004200dd00aa
:104170000000e8004300dd00cf80de00370b0700c1
:104180000080fb006f006000e10f50000200320071
:10419000b0cfb300a90037004e4090000080fb0074
:1041a0004200dd000000e8004300dd000030b00008
:1041b000cf80de00290b0700f34f500002003200d1
:1041c000d0cfb3009d0037003e0090001040780033
:1041d0000080fb008000eb00008fbe001e00be00d0
:1041e0004809dd00c801de00830171004801dd00df
:1041f0003e0090000000e800104078000080fb00c6
:104200008000eb00001f4100019749001e00be0026
:104210004809dd00c801de00830171004801dd00ae
:104220003e0090000080e800104078000080fb0015
:104230008000eb00001f4100019749001e00be00f6
:104240004809dd00c801de00830171004801dd007e
:104250003e009000104078000080fb008000eb00e2
:10426000001f4100019749001e01be000080eb00c5
:104270008080eb00800f5100818f590004003200d4
:104280001e00be00e00f5000e08f580002003a0010
:1042900040cfb300690037004e0090000000e000fe
:1042a00002003a0050cfb300640037004e40900047
:1042b0000080fb004200dd000000e800c300dd00dc
:1042c00000c0200000804000cf80de0043002000be
:1042d0003e019000ab0b07004e0090004800de004e
:1042e000004178004e4090000080fb004200dd005d
:1042f0000000e800c300dd00000021000080400055
:10430000cf80de00130b07004e00900000417800c4
:104310004e4090000080fb004200dd000000e800fd
:10432000c300dd000010210000804000cf80de00cf
:10433000080b07004e4090000080fb004200dd00ab
:104340000000e8004300dd000010b000cf80de0078
:1043500042c0b300ff0a0700000000004e4090007a
:104360000080fb004200dd000000e8004300dd00ab
:104370000010b000cf80de00b80a07000004e000a3
:10438000f6ff3a004e4090000080fb001100200034
:104390000008dd0080007800204080000080600080
:1043a0000000e000190032000040eb00230037005d
:1043b0004e4090000080fb004200dd000000e8005d
:1043c0004300dd000020b000cf80de00a30a07001c
:1043d0000080fb00680060000000e0000c0032007c
:1043e0004e4090000080fb004200dd000000e8002d
:1043f0004300dd000020b000cf80de0082c0b300ab
:10440000d40a070030cfb3000c00370000000000d2
:104410004e4090000080fb004200dd000000e800fc
:104420004300dd000030b000cf80de008b0a0700c3
:10443000f74f5000deff3a0010c0b3000080fa00d2
:10444000000006000200fa00004f78001e407800cd
:10445000e84f50000200360000c0eb004a00370071
:104460001e80fb004200dd000000e8004300dd008c
:10447000cf80de00790a07000080fb006f0060003b
:10448000e10f500002003200b0cfb3003e00370011
:104490001e80fb004200dd000000e8004300dd005c
:1044a0000010b000cf80de0082c0b300a90a070070
:1044b000000000001e80fb004200dd000000e8005c
:1044c0004300dd000010b000cf80de00630a07006b
:1044d0000004e000f7ff3a001e80fb0011002000fe
:1044e0000008dd000080ea00800078003040800095
:1044f00000806000304088001e80fb00110020001a
:104500000008dd008000780020408000008060000e
:104510000000e000110032000040eb001a003700fc
:104520001e80fb004200dd000000e8004300dd00cb
:104530000020b000cf80de00480a07000080fb00aa
:10454000680060000000e000050032001e407800b6
:1045500071fe070030cfb3000b00370000000000f1
:104560001e80fb004200dd000000e8004300dd008b
:104570000030b000cf80de00380a07000004e00001
:10458000e7ff3a0010c0b3000080fa000000060008
:104590000a00fa0040479800310798004207980047
:1045a0000040eb00004f78000000eb00100798007f
:1045b0004e409000e84f5000030036000080eb00b2
:1045c0008080eb00ba0037004e4090000080fb0076
:1045d0004200dd000000e8004300dd00cf80de0087
:1045e0001e0a07000080fb006f006000e10f500012
:1045f00003003200b0ff2f00f1ff2f00ac003700a6
:104600004e0090000000e00003003a0020ff2f0061
:10461000f1ff2f00a60037004e4090000080fb0005
:104620004200dd000000e8004300dd000030b00083
:10463000cf80de00090a0700004f78001e40780096
:10464000f74f5000060032001e407800fc4f50002b
:104650000300320090ff2f00f1ff2f00940037007d
:104660004e4090000080fb00110020000008dd009b
:104670008000780030408000008060000000e00092
:104680002b0032004e4090000080fb004200dd0015
:104690000000e8004300dd000020b000cf80de0015
:1046a000ee0907007f4f60001e80fb007000600075
:1046b0000000e000130032004e4090000080fb003c
:1046c0004200dd000000e8004300dd000020b000f3
:1046d000cf80de0002c1b3001e0a07004e409000ea
:1046e0000080fb00110020000008dd000080ea00cf
:1046f00080007800304080000080600030408800fa
:104700000b0037001e80fb00680060000000e00026
:10471000050032004e409000fffd070030ff2f00e3
:10472000f1ff2f00620037006000b8006000370022
:104730004e4090000080fb004200dd000000e800d9
:10474000c300dd0000f0210000804000cf80de00cb
:10475000c20907000080fb004a00dd001007980036
:10476000ce0090001e009000808f500004003600a4
:104770009e009000410798000100370000000000f3
:104780004e409000cd0a0700100798004e40900060
:104790000080fb004200dd000000e8004300dd0077
:1047a0000030b000cf80de00ac090700004f780079
:1047b0001e407800f74f5000080032001e4078007d
:1047c000fc4f5000050032004e409000d2fd070023
:1047d00090ff2f00f1ff2f00350037004e40900072
:1047e0000080fb00110020000008dd008000780040
:1047f00020408000008060000000e00006003200e1
:10480000ce0090001e009000808f50000200360005
:104810006000b80026003700ce0090001e00900017
:10482000808f5000d5ff3e004e019000be009000ea
:104830004e409000270b07004e4090000080fb0088
:104840004200dd000000e8004300dd000010b00081
:10485000cf80de0002c2b300be09070000000000e6
:104860004e4090000080fb004200dd000000e800a8
:104870004300dd000010b000cf80de0077090700a4
:104880000004e000f6ff3a004e4090000080fb007c
:10489000110020000008dd0080007800304080001a
:1048a00001007000304088004e0090008000eb0056
:1048b0000080fa00000006000a00fa00881f780055
:1048c0004047980031079800420798000040eb00ed
:1048d000004f78000000eb00100798004e40900059
:1048e000e84f5000030036000080eb008080eb00b2
:1048f0008a0037004e4090000080fb004200dd003f
:104900000000e8004300dd00cf80de00530907000f
:104910000080fb006f006000e10f500003003200d8
:10492000b0ff2f00f1ff2f007c0037004e009000f9
:104930000000e00003003a0020ff2f00f1ff2f00ed
:10494000760037004e4090000080fb004200dd0002
:104950000000e800c300dd0000e02100008040000e
:10496000cf80de003d0907000080fb004a00dd002b
:10497000100798009e0090004e009000808f50001d
:10498000040031009e0090004107980001003700ac
:10499000000000004e4090008b0a070010079800ae
:1049a0004e4090000080fb004200dd000000e80067
:1049b0004300dd000030b000cf80de002709070093
:1049c000004f78001e407800f74f50002000320062
:1049d0001e407800fc4f500018003a001e00900066
:1049e0000000e0002c003a004e409000330a07001f
:1049f000000478004e4090000080fb004200dd0083
:104a00000000e800c300dd0000f02100008040004d
:104a1000cf80de00110907000080fb004a00dd00a6
:104a2000800f54000a003a004e4090003afd070003
:104a300090ff2f00f1ff2f00380037004e4090000c
:104a400035fd070090ff2f00f1ff2f0033003700e6
:104a50004e4090000080fb00110020000008dd00a7
:104a60008000780020408000008060000000e000ae
:104a7000050032001e0090000000e00002003a0035
:104a80006000b800250037001e0090000000e00024
:104a9000bfff320001003700000000009e009000c0
:104aa0004e009000808f5000020031009e00900068
:104ab000410798004e019000be0090004e409000cb
:104ac000db0a07004e4090000080fb004200dd0042
:104ad0000000e8004300dd000010b000cf80de00e1
:104ae00002c4b3001b090700000000004e40900004
:104af0000080fb004200dd000000e8004300dd0014
:104b00000010b000cf80de00d40807000004e000f1
:104b1000f6ff3a004e0090008000eb004f04780052
:104b20000080fa00000006001200fa00004f980012
:104b3000510798006207980073079800040f9800c7
:104b40000040eb00004f78000000eb0010079800d9
:104b50000e489000e84f5000030036000080eb0044
:104b60008080eb00070137000e4890000080fb00ba
:104b70004200dd000000e8004300dd00cf80de00e1
:104b8000b60807000080fb006f006000e20f5000d5
:104b900002003200e40f500004003a006e00900062
:104ba0000000e0000400320006003700b0ff2f00d4
:104bb000f1ff2f00f300370020ff2f00f1ff2f003f
:104bc000f00037007e009000104078000080fb006d
:104bd0008000eb0020079800310798002e0090001d
:104be000be0090004809dd00c801de0083017100ad
:104bf0004801dd007e0090000000e80010407800d1
:104c00000080fb008000eb00020040008380480031
:104c100020079800310798002e009000be009000f9
:104c20004809dd00c801de00830171004801dd0094
:104c30007e0090000080e800104078000080fb00bb
:104c40008000eb00020040008380480020079800ad
:104c5000310798002e009000be0090004809dd004a
:104c6000c801de00830171004801dd007e00900074
:104c700063004000104078000080fb008000eb00e3
:104c80000200400083804800200798003107980008
:104c90007e0090001000be00e00f5000e08f580032
:104ca00003003a0040ff2f00f1ff2f00b50037004e
:104cb0000e0890000000e00003003a0050ff2f00b3
:104cc000f1ff2f00af0037000e4890000080fb007e
:104cd0004200dd000000e8004300dd000030b000cd
:104ce000cf80de005d080700004f780020c4b300cd
:104cf0009e40780080cf50000700320020c2b300f1
:104d00009e40780080cf50000300320090ff2f00bb
:104d1000f1ff2f009b0037000e4890000080fb0041
:104d20004200dd000000e800c300dd0000c02000fc
:104d300000804000cf80de00430020007e01900014
:104d4000100907000e0890004800de0000417800be
:104d50000e4890000080fb004200dd000000e800eb
:104d6000c300dd000000210000804000cf80de0095
:104d7000780807000e089000004178000e48900067
:104d80000080fb004200dd000000e800c300dd0001
:104d90000010210000804000cf80de006d08070079
:104da0000e4890000080fb004200dd000000e8009b
:104db000c300dd0000f0210000804000cf80de0055
:104dc000260807000080fb004a00dd00100798005d
:104dd000ee0090001e009000808f5000040036000e
:104de0009e0090006107980001003700000000005d
:104df0000e48900031090700100798000e489000f7
:104e00000080fb004200dd000000e8004300dd0000
:104e10000030b000cf80de00100807000004e00082
:104e200003003a00c0ff2f00f1ff2f0055003700ac
:104e30000e4890000080fb00110020000008dd00fb
:104e40008000780020408000008060000000e000ca
:104e500006003200ee0090001e009000808f50008f
:104e6000020036006000b80046003700ee009000f7
:104e70001e009000808f5000dcff3e006e0190000d
:104e8000de0090000e489000920907000e48900046
:104e90000080fb004200dd000000e8004300dd0070
:104ea0000010b000cf80de0002c2b3002908070066
:104eb000000000000e4890000080fb004200dd0072
:104ec0000000e8004300dd000010b000cf80de00ed
:104ed000e20707000004e000f6ff3a000100370097
:104ee000000000000e4890000080fb004200dd0042
:104ef0000000e8004300dd000020b000cf80de00ad
:104f0000d60707007f4f60001e80fb007000600026
:104f10000000e0000c0032000e4890000080fb0012
:104f20004200dd000000e8004300dd000020b0008a
:104f3000cf80de0002c1b300060807006e009000bb
:104f40008000eb000f0037001e80fb00680060004f
:104f50000000e000e2ff32000e4890000080fb00fd
:104f60004200dd000000e8004300dd000020b0004a
:104f7000cf80de0082c0b300f607070030ff2f00ad
:104f8000f1ff2f000080fa00000006001600fa0072
:104f9000404f980071079800020f9800130f980077
:104fa000240f98000000eb00000f78004e4890009e
:104fb000e84f5000030036000080eb008080eb00db
:104fc000640137004e4890000080fb004200dd0085
:104fd0000000e8004300dd00cf80de009f070700ef
:104fe000204798002e4090000080fb006f0060007a
:104ff000e20f500002003200e40f500004003a00bb
:105000000e0890000000e0000400320006003700a7
:10501000b0ff2f00f1ff2f004e01370020ff2f00bf
:10502000f1ff2f004b0137004e4890000080fb003d
:105030008000400000c82000008040001000780080
:105040000000e00024003a000100370000000000ea
:105050004e489000dc080700000f78004e48900092
:105060000080fb004200dd000000e8004300dd009e
:105070000030b000cf80de00780707000004e000b9
:1050800003003a00c0ff2f00f1ff2f00310137006d
:105090004e4890000080fb00110020000008dd0059
:1050a0008000780020408000008060000000e00068
:1050b000050032001e0078000000e00002003a0007
:1050c0006000b800230137001e0078000000e000f7
:1050d000deff3200000000004e4890000080fb0020
:1050e00001c920000041eb00827078002e40900042
:1050f0000080fb0067006000e20f500003003200f8
:10510000e40f500071003200d30037004e48900089
:105110000080fb008000400000c8200000804000ac
:10512000100078000000e00051003a0063004700e2
:1051300082002000800078004e4890003c09070063
:105140004e4890000080fb004200dd000000e800b7
:105150004300dd000010b000cf80de0002c4b300c9
:105160007c070700000000004e4890000080fb0014
:105170004200dd000000e8004300dd000010b00048
:10518000cf80de00350707000004e000f6ff3a009c
:10519000be4090001e089000014878001e08900054
:1051a0000000e800ce409000014878001e08900002
:1051b0000080e800de409000014878001e08900062
:1051c00063004000ee409000014878007e4090006f
:1051d0008080fb002e089000010878002e089000c7
:1051e00010007800c800dd000e4890000080fb0031
:1051f000808040002e089000010878004e48900002
:105200000080fb009e4890008180fb000001400070
:1052100000c8200000004100010878004e489000be
:105220000080fb00ce4890008180fb00018140009f
:1052300001c8200081004100910078004809dd008c
:10524000ae4890008180fb008100410000014000d9
:1052500000c8200000004100010878004e4890007e
:105260000080fb0001c9200002c8b30082707800f2
:105270004e4890000080fb008000400000c82000e5
:1052800000804000900078000e089000808f500051
:10529000030036008e089000010f780006003700ea
:1052a0004e4890000080fb008000400000c82000b5
:1052b00000804000100f78001e017800fe00900072
:1052c0004e489000da0807006d0037004e48900005
:1052d0000080fb008000400000c8200000804000eb
:1052e000100078000000e00044003a00630047002e
:1052f00022002000800078004e489000cc08070073
:105300004e4890000080fb004200dd000000e800f5
:105310004300dd000010b000cf80de0002c4b30007
:105320000c070700000000004e4890000080fb00c2
:105330004200dd000000e8004300dd000010b00086
:10534000cf80de00c50607000004e000f6ff3a004b
:105350004e4890000080fb00be4090008180fb0022
:105360000001400000c82000000041000108780052
:105370004e4890000080fb00ce4890008180fb00ea
:105380000181400001c820008100410091007800a7
:105390004809dd00ce4090008180fb008100410083
:1053a0000001400000c82000000041000108780012
:1053b0004e4890000080fb008000400000c82000a4
:1053c0000080400090007800a05e2000808f500098
:1053d000050036004e489000cffa070070c12f003c
:1053e000f1ff2f005b0037004e4890000080fb006b
:1053f00001c9200002c8b300827078004e489000b6
:105400000080fb008000400000c8200000804000b9
:10541000900078000e089000808f50000300360046
:105420008e089000010f7800060037004e4890006b
:105430000080fb008000400000c820000080400089
:10544000100f78001e017800fe0090004e4890007a
