:020000040000fa
:080000000002040000000000f2
:020000040000fa
:04000800b40300003d
:020000040000fa
:04000c00fc020000f2
:020000040000fa
:040010003e030000ab
:020000040000fa
:040014001c030000c9
:020000040000fa
:040018005e03000083
:020000040000fa
:04001c00b403000029
:020000040000fa
:04002000b403000025
:020000040000fa
:04002400b403000021
:020000040000fa
:04002800b40300001d
:020000040000fa
:04002c00b403000019
:020000040000fa
:04003000b403000015
:020000040000fa
:040034007e03000047
:020000040000fa
:04003800b40300000d
:020000040000fa
:04003c00b403000009
:020000040000fa
:04004000b403000005
:020000040000fa
:04004400b403000001
:020000040000fa
:04004800b4030000fd
:020000040000fa
:04004c00b4030000f9
:020000040000fa
:04005000b4030000f5
:020000040000fa
:04005400b4030000f1
:020000040000fa
:04005800b4030000ed
:020000040000fa
:04005c00b4030000e9
:020000040000fa
:04006000b4030000e5
:020000040000fa
:04006400b4030000e1
:020000040000fa
:04006800b4030000dd
:020000040000fa
:04006c00b4030000d9
:020000040000fa
:04007000b4030000d5
:020000040000fa
:04007400b4030000d1
:020000040000fa
:04007800b4030000cd
:020000040000fa
:04007c00b4030000c9
:020000040000fa
:04008000b4030000c5
:020000040000fa
:04008400b4030000c1
:020000040000fa
:04008800b4030000bd
:020000040000fa
:04008c00b4030000b9
:020000040000fa
:04009000b4030000b5
:020000040000fa
:04009400b4030000b1
:020000040000fa
:04009800b4030000ad
:020000040000fa
:04009c00b4030000a9
:020000040000fa
:0400a000b4030000a5
:020000040000fa
:0400a400b4030000a1
:020000040000fa
:0400a800b40300009d
:020000040000fa
:0400ac00b403000099
:020000040000fa
:0400b000b403000095
:020000040000fa
:0400b400b403000091
:020000040000fa
:0400b800b40300008d
:020000040000fa
:0400bc00b403000089
:020000040000fa
:0400c000b403000085
:020000040000fa
:0400c400b403000081
:020000040000fa
:0400c800b40300007d
:020000040000fa
:0400cc00b403000079
:020000040000fa
:0400d000b403000075
:020000040000fa
:0400d400b403000071
:020000040000fa
:0400d800b40300006d
:020000040000fa
:0400dc00b403000069
:020000040000fa
:0400e000b403000065
:020000040000fa
:0400e400b403000061
:020000040000fa
:0400e800b40300005d
:020000040000fa
:0400ec00b403000059
:020000040000fa
:0400f000b403000055
:020000040000fa
:0400f400b403000051
:020000040000fa
:0400f800b40300004d
:020000040000fa
:0400fc00b403000049
:020000040000fa
:04010000b403000044
:020000040000fa
:04010400b403000040
:020000040000fa
:04010800b40300003c
:020000040000fa
:04010c00b403000038
:020000040000fa
:04011000b403000034
:020000040000fa
:04011400b403000030
:020000040000fa
:04011800b40300002c
:020000040000fa
:04011c00b403000028
:020000040000fa
:04012000b403000024
:020000040000fa
:04012400b403000020
:020000040000fa
:04012800b40300001c
:020000040000fa
:04012c00b403000018
:020000040000fa
:04013000b403000014
:020000040000fa
:04013400b403000010
:020000040000fa
:04013800b40300000c
:020000040000fa
:04013c00b403000008
:020000040000fa
:04014000b403000004
:020000040000fa
:04014400b403000000
:020000040000fa
:04014800b4030000fc
:020000040000fa
:04014c00b4030000f8
:020000040000fa
:04015000b4030000f4
:020000040000fa
:04015400b4030000f0
:020000040000fa
:04015800b4030000ec
:020000040000fa
:04015c00b4030000e8
:020000040000fa
:04016000b4030000e4
:020000040000fa
:04016400b4030000e0
:020000040000fa
:04016800b4030000dc
:020000040000fa
:04016c00b4030000d8
:020000040000fa
:04017000b4030000d4
:020000040000fa
:04017400b4030000d0
:020000040000fa
:04017800b4030000cc
:020000040000fa
:04017c00b4030000c8
:020000040000fa
:04018000b4030000c4
:020000040000fa
:04018400b4030000c0
:020000040000fa
:04018800b4030000bc
:020000040000fa
:04018c00b4030000b8
:020000040000fa
:04019000b4030000b4
:020000040000fa
:04019400b4030000b0
:020000040000fa
:04019800b4030000ac
:020000040000fa
:04019c00b4030000a8
:020000040000fa
:04020800b40300003b
:020000040000fa
:04020c00fc020000f0
:020000040000fa
:040210003e030000a9
:020000040000fa
:040214001c030000c7
:020000040000fa
:040218005e03000081
:020000040000fa
:04021c00b403000027
:020000040000fa
:04022000b403000023
:020000040000fa
:04022400b40300001f
:020000040000fa
:04022800b40300001b
:020000040000fa
:04022c00b403000017
:020000040000fa
:04023000b403000013
:020000040000fa
:040234007e03000045
:020000040000fa
:04023800b40300000b
:020000040000fa
:04023c00b403000007
:020000040000fa
:04024000b403000003
:020000040000fa
:04024400b4030000ff
:020000040000fa
:04024800b4030000fb
:020000040000fa
:04024c00b4030000f7
:020000040000fa
:04025000b4030000f3
:020000040000fa
:04025400b4030000ef
:020000040000fa
:04025800b4030000eb
:020000040000fa
:04025c00b4030000e7
:020000040000fa
:04026000b4030000e3
:020000040000fa
:04026400b4030000df
:020000040000fa
:04026800b4030000db
:020000040000fa
:04026c00b4030000d7
:020000040000fa
:04027000b4030000d3
:020000040000fa
:04027400b4030000cf
:020000040000fa
:04027800b4030000cb
:020000040000fa
:04027c00b4030000c7
:020000040000fa
:04028000b4030000c3
:020000040000fa
:04028400b4030000bf
:020000040000fa
:04028800b4030000bb
:020000040000fa
:04028c00b4030000b7
:020000040000fa
:04029000b4030000b3
:020000040000fa
:04029400b4030000af
:020000040000fa
:04029800b4030000ab
:020000040000fa
:04029c00b4030000a7
:020000040000fa
:0402a000b4030000a3
:020000040000fa
:0402a400b40300009f
:020000040000fa
:0402a800b40300009b
:020000040000fa
:0402ac00b403000097
:020000040000fa
:0402b000b403000093
:020000040000fa
:0402b400b40300008f
:020000040000fa
:0402b800b40300008b
:020000040000fa
:0402bc00b403000087
:020000040000fa
:0402c000b403000083
:020000040000fa
:0402c400b40300007f
:020000040000fa
:0402c800b40300007b
:020000040000fa
:0402cc00b403000077
:020000040000fa
:0402d000b403000073
:020000040000fa
:0402d400b40300006f
:020000040000fa
:0402d800b40300006b
:020000040000fa
:0402dc00b403000067
:020000040000fa
:0402e000b403000063
:020000040000fa
:0402e400b40300005f
:020000040000fa
:0402e800b40300005b
:020000040000fa
:0402ec00b403000057
:020000040000fa
:0402f000b403000053
:020000040000fa
:0402f400b40300004f
:020000040000fa
:0402f800b40300004b
:020000040000fa
:0402fc00b403000047
:020000040000fa
:04030000b403000042
:020000040000fa
:04030400b40300003e
:020000040000fa
:04030800b40300003a
:020000040000fa
:04030c00b403000036
:020000040000fa
:04031000b403000032
:020000040000fa
:04031400b40300002e
:020000040000fa
:04031800b40300002a
:020000040000fa
:04031c00b403000026
:020000040000fa
:04032000b403000022
:020000040000fa
:04032400b40300001e
:020000040000fa
:04032800b40300001a
:020000040000fa
:04032c00b403000016
:020000040000fa
:04033000b403000012
:020000040000fa
:04033400b40300000e
:020000040000fa
:04033800b40300000a
:020000040000fa
:04033c00b403000006
:020000040000fa
:04034000b403000002
:020000040000fa
:04034400b4030000fe
:020000040000fa
:04034800b4030000fa
:020000040000fa
:04034c00b4030000f6
:020000040000fa
:04035000b4030000f2
:020000040000fa
:04035400b4030000ee
:020000040000fa
:04035800b4030000ea
:020000040000fa
:04035c00b4030000e6
:020000040000fa
:04036000b4030000e2
:020000040000fa
:04036400b4030000de
:020000040000fa
:04036800b4030000da
:020000040000fa
:04036c00b4030000d6
:020000040000fa
:04037000b4030000d2
:020000040000fa
:04037400b4030000ce
:020000040000fa
:04037800b4030000ca
:020000040000fa
:04037c00b4030000c6
:020000040000fa
:04038000b4030000c2
:020000040000fa
:04038400b4030000be
:020000040000fa
:04038800b4030000ba
:020000040000fa
:04038c00b4030000b6
:020000040000fa
:04039000b4030000b2
:020000040000fa
:04039400b4030000ae
:020000040000fa
:04039800b4030000aa
:020000040000fa
:04039c00b4030000a6
:020000040000fa
:100400002fc920000e7f24000e018800000000008c
:10041000000020000000e000020032000001200087
:100420002002880014000700d10007000000e0004f
:1004300003003a00006b2200010020000200370098
:100440000000200001002000810f70000100320038
:1004500014000700000020000000e000020032004d
:1004600000000200000000000a240200000000005a
:100470000040da000000fe004440a9000001200016
:100480000000e0000300320000002000a00188000e
:100490004440a800000006008a1f78008b1f7800e7
:1004a0000000060091018800800478000000eb0045
:1004b0001a003700e284440032a0b4009905ba0063
:1004c000e284440032a0b4009906ba00e2844400f9
:1004d00032a0b4000006eb00476fde00fd07b2005b
:1004e000636ce10003003a00ebff07000000eb0043
:1004f0000a003700606ce10004003a00005deb0088
:100500008b05e900fdff3e00040037006168e10053
:10051000010032000086eb000b00070019c7ba008b
:100520001905ba000e04e00003003a000a00e000da
:10053000e0ff3a0000000600fe07b2009e018800be
:100540008a047800f5ff3700395dba008b05e900b1
:100550000c003200295dba008b05e900080032006a
:100560000c00e00003003a00e284440032a0b40032
:10057000f5ff370019ddba008b05e900faff3a00f4
:100580008904e800e184440032a0b40000000600c1
:1005900024220400000000001a22040000000000d1
:1005a00012220400000000000a22040000000000e3
:1005b000ce14040000000000d41404000000000069
:1005c000da14040000000000e01404000000000041
:1005d000e614040000000000f21404000000000013
:1005e00002150400000000000a15040000000000cd
:1005f000aa250400000000003600f800809fbe001d
:10060000829fbe00849fbe00869fbe000000fa004d
:100610008020a9000000eb001a1207000080fa00f9
:100620004f03be004f02be004f01be004f00be0090
:100630003600f900004006003600f800809fbe003a
:10064000829fbe00849fbe00869fbe000000fa000d
:10065000111207008040a9001000200009120700b5
:100660000080fa004f03be004f02be004f01be00e3
:100670004f00be003600f900004006003600f800ca
:10068000809fbe00829fbe00849fbe00869fbe00ea
:100690000000fa008060a90020002000f911070086
:1006a0000080fa004f03be004f02be004f01be00a3
:1006b0004f00be003600f900004006003600f8008a
:1006c000809fbe00829fbe00849fbe00869fbe00aa
:1006d0000000fa008080a90030002000e911070026
:1006e0000080fa004f03be004f02be004f01be0063
:1006f0004f00be003600f900004006003600f8004a
:10070000809fbe00829fbe00849fbe00869fbe0069
:100710000000fa00504080000000e00002003200bb
:10072000504080000000010010c9200010407800f7
:100730008040e80010c920000148780000c920006e
:1007400011c0b300014878008460a9000080fa005d
:100750004f03be004f02be004f01be004f00be005f
:100760003600f900004006000040da000000fe00fc
:10077000000005008001780002003700b1597800c0
:100780000201e9000200e000fcff3a000000060060
:020000040000fa
:100790000202000002020000020200000202000049
:1007a0005735000035300000300000000000000028
:020000040000fa
:1007b0000600fa00004f78001147980012079800d1
:1007c000434798001e407800e84f50000200360072
:1007d00000c0eb00a60037001e4090000080fb0028
:1007e000e40f50000b003e00110020000008dd0067
:1007f000760060000000e000060032004e409000ed
:100800000080fb00660060000000e00003003a008a
:1008100004003700b0cfb30095003700a0cfb3007d
:10082000930037004e4090000004e00029003200a1
:100830001e4090000080fb00e10f500003003200da
:10084000e20f500009003200220037004e409000b5
:100850008080fb0010022000008060000000e000ab
:1008600017003a00a0cfb300810037004e4090003f
:100870008080fb0000022000008060000000e0009b
:10088000050032004e4090000004e00002003500f8
:10089000a0cfb300760037004e4090000080fb00f0
:1008a000700060000000e000070032004e40900041
:1008b0000004e00006003500a0cfb3006c00370054
:1008c00000000000030037000000000001003700b6
:1008d000000000001e40780067000700ce40900036
:1008e00000cfb30080c060001e40900000c07000c8
:1008f000004178001e80fb004200dd000000e8009f
:100900004300dd00cf80de006a0c07001e0090006f
:100910000000e00009003a00304080001007980015
:100920000000e8003040880030408000f00f4000b8
:1009300002003a0000002c00304088001e009000a9
:100940004800de00004178001e80fb004200dd0010
:100950000000e800c300dd000040200000804000ef
:10096000cf80de00530c07001e009000004178008d
:100970001e80fb004200dd000000e800c300dd0037
:100980000050200000804000cf80de00490c0700ae
:100990001e80fb004200dd000000e8004300dd0097
:1009a0000010b000cf80de0012c0b300410c070081
:1009b000000000001e80fb004200dd000000e80097
:1009c0004300dd000010b000cf80de00fb0b07000d
:1009d0000004e000f7ff3a004e4090000080fb006a
:1009e000e10060001e80fb000008dd008000780050
:1009f0000040800001007000004088001e80fb0065
:100a0000110020000008dd000080ea00800078006e
:100a10001040800000806000104088001e80fb00b5
:100a20008000400000c62000008040008000eb00f5
:100a3000010878001e80fb0001c720000041eb0088
:100a400082707800000000001e80fb004200dd0084
:100a50000000e8004300dd000030b000cf80de0081
:100a6000d60b07000004e000f7ff32001e407800bc
:100a70000080fa00000006000200fa00004f780033
:100a80001e407800e84f50000200360000c0eb0026
:100a9000370037001e80fb004200dd000000e80048
:100aa0004300dd000010b000cf80de0002c1b300c3
:100ab000000c0700000000001e80fb004200dd006b
:100ac0000000e8004300dd000010b000cf80de0031
:100ad000ba0b07000004e000f7ff3a001e80fb009d
:100ae0004200dd000000e8004300dd000020b0000f
:100af000cf80de00f2c1b300ee0b07001e80fb00ca
:100b0000110020000008dd000080ea00800078006d
:100b10001040800000806000104088001e80fb00b4
:100b20008000400000c62000008040008000eb00f4
:100b3000010878001e80fb0001c720000041eb0087
:100b400082707800000000001e80fb004200dd0083
:100b50000000e8004300dd000030b000cf80de0080
:100b6000960b07000004e000f7ff3a0010c0b30046
:100b70000080fa00000006000200fa00004f780032
:100b80001e407800e84f50000200360000c0eb0025
:100b9000410037001e80fb004200dd000000e8003d
:100ba0004300dd00cf80de00840b07000080fb00e7
:100bb0006f006000e10f500002003200b0cfb300c0
:100bc000350037001e80fb004200dd000000e80019
:100bd0004300dd000030b000cf80de00770b07005f
:100be000f34f500002003200d0cfb3002a0037008c
:100bf0001e80fb004200dd000000e8004300dd0035
:100c00000010b000cf80de0022c0b300a90b0700a7
:100c1000000000001e80fb004200dd000000e80034
:100c20004300dd000010b000cf80de00630b070042
:100c30000004e000f7ff3a000d0037001e80fb00c3
:100c40004200dd000000e8004300dd000010b000bd
:100c5000cf80de00590b07000004e00004003a00da
:100c60001e40780084ff0700c0cfb3000a003700a1
:100c70001e80fb004200dd000000e8004300dd00b4
:100c80000030b000cf80de004c0b0700f44f500066
:100c9000eaff3a0010c0b3000080fa00000006002e
:100ca0000a00fa0040479800310798004207980070
:100cb0004e409000e84f50000200360000c0eb00ac
:100cc000b60037004e4090000080fb004200dd007f
:100cd0000000e8004300dd00cf80de00370b070096
:100ce0000080fb006f006000e10f50000200320046
:100cf000b0cfb300a90037004e4090000080fb0049
:100d00004200dd000000e8004300dd000030b000dc
:100d1000cf80de00290b0700f34f500002003200a5
:100d2000d0cfb3009d0037003e0090001040780007
:100d30000080fb008000eb00008fbe001e00be00a4
:100d40004809dd00c801de00830171004801dd00b3
:100d50003e0090000000e800104078000080fb009a
:100d60008000eb00001f4100019749001e00be00fb
:100d70004809dd00c801de00830171004801dd0083
:100d80003e0090000080e800104078000080fb00ea
:100d90008000eb00001f4100019749001e00be00cb
:100da0004809dd00c801de00830171004801dd0053
:100db0003e009000104078000080fb008000eb00b7
:100dc000001f4100019749001e01be000080eb009a
:100dd0008080eb00800f5100818f590004003200a9
:100de0001e00be00e00f5000e08f580002003a00e5
:100df00040cfb300690037004e0090000000e000d3
:100e000002003a0050cfb300640037004e4090001b
:100e10000080fb004200dd000000e800c300dd00b0
:100e200000c0200000804000cf80de004300200092
:100e30003e019000ab0b07004e0090004800de0022
:100e4000004178004e4090000080fb004200dd0031
:100e50000000e800c300dd00000021000080400029
:100e6000cf80de00130b07004e0090000041780099
:100e70004e4090000080fb004200dd000000e800d2
:100e8000c300dd000010210000804000cf80de00a4
:100e9000080b07004e4090000080fb004200dd0080
:100ea0000000e8004300dd000010b000cf80de004d
:100eb00042c0b300ff0a0700000000004e4090004f
:100ec0000080fb004200dd000000e8004300dd0080
:100ed0000010b000cf80de00b80a07000004e00078
:100ee000f6ff3a004e4090000080fb001100200009
:100ef0000008dd0080007800004080000080600075
:100f00000000e000190032000040eb002300370031
:100f10004e4090000080fb004200dd000000e80031
:100f20004300dd000020b000cf80de00a30a0700f0
:100f30000080fb00680060000000e0000c00320050
:100f40004e4090000080fb004200dd000000e80001
:100f50004300dd000020b000cf80de0082c0b3007f
:100f6000d40a070030cfb3000c00370000000000a7
:100f70004e4090000080fb004200dd000000e800d1
:100f80004300dd000030b000cf80de008b0a070098
:100f9000f74f5000deff3a0010c0b3000080fa00a7
:100fa000000006000200fa00004f78001e407800a2
:100fb000e84f50000200360000c0eb004a00370046
:100fc0001e80fb004200dd000000e8004300dd0061
:100fd000cf80de00790a07000080fb006f00600010
:100fe000e10f500002003200b0cfb3003e003700e6
:100ff0001e80fb004200dd000000e8004300dd0031
:101000000010b000cf80de0082c0b300a90a070044
:10101000000000001e80fb004200dd000000e80030
:101020004300dd000010b000cf80de00630a07003f
:101030000004e000f7ff3a001e80fb0011002000d2
:101040000008dd000080ea00800078001040800089
:1010500000806000104088001e80fb00110020000e
:101060000008dd0080007800004080000080600003
:101070000000e000110032000040eb001a003700d1
:101080001e80fb004200dd000000e8004300dd00a0
:101090000020b000cf80de00480a07000080fb007f
:1010a000680060000000e000050032001e4078008b
:1010b00071fe070030cfb3000b00370000000000c6
:1010c0001e80fb004200dd000000e8004300dd0060
:1010d0000030b000cf80de00380a07000004e000d6
:1010e000e7ff3a0010c0b3000080fa0000000600dd
:1010f0000a00fa004047980031079800420798001c
:101100000040eb00004f78000000eb001007980053
:101110004e409000e84f5000030036000080eb0086
:101120008080eb00ba0037004e4090000080fb004a
:101130004200dd000000e8004300dd00cf80de005b
:101140001e0a07000080fb006f006000e10f5000e6
:1011500003003200b0ff2f00f1ff2f00ac0037007a
:101160004e0090000000e00003003a0020ff2f0036
:10117000f1ff2f00a60037004e4090000080fb00da
:101180004200dd000000e8004300dd000030b00058
:10119000cf80de00090a0700004f78001e4078006b
:1011a000f74f5000060032001e407800fc4f500000
:1011b0000300320090ff2f00f1ff2f009400370052
:1011c0004e4090000080fb00110020000008dd0070
:1011d0008000780010408000008060000000e00087
:1011e0002b0032004e4090000080fb004200dd00ea
:1011f0000000e8004300dd000020b000cf80de00ea
:10120000ee0907007f4f60001e80fb007000600049
:101210000000e000130032004e4090000080fb0010
:101220004200dd000000e8004300dd000020b000c7
:10123000cf80de0002c1b3001e0a07004e409000be
:101240000080fb00110020000008dd000080ea00a3
:10125000800078001040800000806000104088000e
:101260000b0037001e80fb00680060000000e000fb
:10127000050032004e409000fffd070030ff2f00b8
:10128000f1ff2f00620037006000b80060003700f7
:101290004e4090000080fb004200dd000000e800ae
:1012a000c300dd0000f0210000804000cf80de00a0
:1012b000c20907000080fb004a00dd00100798000b
:1012c000ce0090001e009000808f50000400360079
:1012d0009e009000410798000100370000000000c8
:1012e0004e409000cd0a0700100798004e40900035
:1012f0000080fb004200dd000000e8004300dd004c
:101300000030b000cf80de00ac090700004f78004d
:101310001e407800f74f5000080032001e40780051
:10132000fc4f5000050032004e409000d2fd0700f7
:1013300090ff2f00f1ff2f00350037004e40900046
:101340000080fb00110020000008dd008000780014
:1013500000408000008060000000e00006003200d5
:10136000ce0090001e009000808f500002003600da
:101370006000b80026003700ce0090001e009000ec
:10138000808f5000d5ff3e004e019000be009000bf
:101390004e409000270b07004e4090000080fb005d
:1013a0004200dd000000e8004300dd000010b00056
:1013b000cf80de0002c2b300be09070000000000bb
:1013c0004e4090000080fb004200dd000000e8007d
:1013d0004300dd000010b000cf80de007709070079
:1013e0000004e000f6ff3a004e4090000080fb0051
:1013f000110020000008dd0080007800104080000f
:1014000001007000104088004e0090008000eb004a
:101410000080fa00000006000a00fa00881f780029
:101420004047980031079800420798000040eb00c1
:10143000004f78000000eb00100798004e4090002d
:10144000e84f5000030036000080eb008080eb0086
:101450008a0037004e4090000080fb004200dd0013
:101460000000e8004300dd00cf80de0053090700e4
:101470000080fb006f006000e10f500003003200ad
:10148000b0ff2f00f1ff2f007c0037004e009000ce
:101490000000e00003003a0020ff2f00f1ff2f00c2
:1014a000760037004e4090000080fb004200dd00d7
:1014b0000000e800c300dd0000e0210000804000e3
:1014c000cf80de003d0907000080fb004a00dd0000
:1014d000100798009e0090004e009000808f5000f2
:1014e000040031009e009000410798000100370081
:1014f000000000004e4090008b0a07001007980083
:101500004e4090000080fb004200dd000000e8003b
:101510004300dd000030b000cf80de002709070067
:10152000004f78001e407800f74f50002000320036
:101530001e407800fc4f500018003a001e0090003a
:101540000000e0002c003a004e409000330a0700f3
:10155000000478004e4090000080fb004200dd0057
:101560000000e800c300dd0000f021000080400022
:10157000cf80de00110907000080fb004a00dd007b
:10158000800f54000a003a004e4090003afd0700d8
:1015900090ff2f00f1ff2f00380037004e409000e1
:1015a00035fd070090ff2f00f1ff2f0033003700bb
:1015b0004e4090000080fb00110020000008dd007c
:1015c0008000780000408000008060000000e000a3
:1015d000050032001e0090000000e00002003a000a
:1015e0006000b800250037001e0090000000e000f9
:1015f000bfff320001003700000000009e00900095
:101600004e009000808f5000020031009e0090003c
:10161000410798004e019000be0090004e4090009f
:10162000db0a07004e4090000080fb004200dd0016
:101630000000e8004300dd000010b000cf80de00b5
:1016400002c4b3001b090700000000004e409000d8
:101650000080fb004200dd000000e8004300dd00e8
:101660000010b000cf80de00d40807000004e000c6
:10167000f6ff3a004e0090008000eb004f04780027
:101680000080fa00000006001200fa00004f9800e7
:10169000510798006207980073079800040f98009c
:1016a0000040eb00004f78000000eb0010079800ae
:1016b0000e489000e84f5000030036000080eb0019
:1016c0008080eb00070137000e4890000080fb008f
:1016d0004200dd000000e8004300dd00cf80de00b6
:1016e000b60807000080fb006f006000e20f5000aa
:1016f00002003200e40f500004003a006e00900037
:101700000000e0000400320006003700b0ff2f00a8
:10171000f1ff2f00f300370020ff2f00f1ff2f0013
:10172000f00037007e009000104078000080fb0041
:101730008000eb0020079800310798002e009000f1
:10174000be0090004809dd00c801de008301710081
:101750004801dd007e0090000000e80010407800a5
:101760000080fb008000eb00020040008380480006
:1017700020079800310798002e009000be009000ce
:101780004809dd00c801de00830171004801dd0069
:101790007e0090000080e800104078000080fb0090
:1017a0008000eb0002004000838048002007980082
:1017b000310798002e009000be0090004809dd001f
:1017c000c801de00830171004801dd007e00900049
:1017d00063004000104078000080fb008000eb00b8
:1017e00002004000838048002007980031079800dd
:1017f0007e0090001000be00e00f5000e08f580007
:1018000003003a0040ff2f00f1ff2f00b500370022
:101810000e0890000000e00003003a0050ff2f0087
:10182000f1ff2f00af0037000e4890000080fb0052
:101830004200dd000000e8004300dd000030b000a1
:10184000cf80de005d080700004f780020c4b300a1
:101850009e40780080cf50000700320020c2b300c5
:101860009e40780080cf50000300320090ff2f0090
:10187000f1ff2f009b0037000e4890000080fb0016
:101880004200dd000000e800c300dd0000c02000d1
:1018900000804000cf80de00430020007e019000e9
:1018a000100907000e0890004800de000041780093
:1018b0000e4890000080fb004200dd000000e800c0
:1018c000c300dd000000210000804000cf80de006a
:1018d000780807000e089000004178000e4890003c
:1018e0000080fb004200dd000000e800c300dd00d6
:1018f0000010210000804000cf80de006d0807004e
:101900000e4890000080fb004200dd000000e8006f
:10191000c300dd0000f0210000804000cf80de0029
:10192000260807000080fb004a00dd001007980031
:10193000ee0090001e009000808f500004003600e2
:101940009e00900061079800010037000000000031
:101950000e48900031090700100798000e489000cb
:101960000080fb004200dd000000e8004300dd00d5
:101970000030b000cf80de00100807000004e00057
:1019800003003a00c0ff2f00f1ff2f005500370081
:101990000e4890000080fb00110020000008dd00d0
:1019a0008000780000408000008060000000e000bf
:1019b00006003200ee0090001e009000808f500064
:1019c000020036006000b80046003700ee009000cc
:1019d0001e009000808f5000dcff3e006e019000e2
:1019e000de0090000e489000920907000e4890001b
:1019f0000080fb004200dd000000e8004300dd0045
:101a00000010b000cf80de0002c2b300290807003a
:101a1000000000000e4890000080fb004200dd0046
:101a20000000e8004300dd000010b000cf80de00c1
:101a3000e20707000004e000f6ff3a00010037006b
:101a4000000000000e4890000080fb004200dd0016
:101a50000000e8004300dd000020b000cf80de0081
:101a6000d60707007f4f60001e80fb0070006000fb
:101a70000000e0000c0032000e4890000080fb00e7
:101a80004200dd000000e8004300dd000020b0005f
:101a9000cf80de0002c1b300060807006e00900090
:101aa0008000eb000f0037001e80fb006800600024
:101ab0000000e000e2ff32000e4890000080fb00d2
:101ac0004200dd000000e8004300dd000020b0001f
:101ad000cf80de0082c0b300f607070030ff2f0082
:101ae000f1ff2f000080fa00000006001600fa0047
:101af000404f980071079800020f9800130f98004c
:101b0000240f98000000eb00000f78004e48900072
:101b1000e84f5000030036000080eb008080eb00af
:101b2000640137004e4890000080fb004200dd0059
:101b30000000e8004300dd00cf80de009f070700c3
:101b4000204798002e4090000080fb006f0060004e
:101b5000e20f500002003200e40f500004003a008f
:101b60000e0890000000e00004003200060037007c
:101b7000b0ff2f00f1ff2f004e01370020ff2f0094
:101b8000f1ff2f004b0137004e4890000080fb0012
:101b90008000400000c62000008040001000780057
:101ba0000000e00024003a000100370000000000bf
:101bb0004e489000dc080700000f78004e48900067
:101bc0000080fb004200dd000000e8004300dd0073
:101bd0000030b000cf80de00780707000004e0008e
:101be00003003a00c0ff2f00f1ff2f003101370042
:101bf0004e4890000080fb00110020000008dd002e
:101c00008000780000408000008060000000e0005c
:101c1000050032001e0078000000e00002003a00db
:101c20006000b800230137001e0078000000e000cb
:101c3000deff3200000000004e4890000080fb00f4
:101c400001c720000041eb00827078002e40900018
:101c50000080fb0067006000e20f500003003200cc
:101c6000e40f500071003200d30037004e4890005e
:101c70000080fb008000400000c620000080400083
:101c8000100078000000e00051003a0063004700b7
:101c900082002000800078004e4890003c09070038
:101ca0004e4890000080fb004200dd000000e8008c
:101cb0004300dd000010b000cf80de0002c4b3009e
:101cc0007c070700000000004e4890000080fb00e9
:101cd0004200dd000000e8004300dd000010b0001d
:101ce000cf80de00350707000004e000f6ff3a0071
:101cf000be4090001e089000014878001e08900029
:101d00000000e800ce409000014878001e089000d6
:101d10000080e800de409000014878001e08900036
:101d200063004000ee409000014878007e40900043
:101d30008080fb002e089000010878002e0890009b
:101d400010007800c800dd000e4890000080fb0005
:101d5000808040002e089000010878004e489000d6
:101d60000080fb009e4890008180fb000001400045
:101d700000c6200000004100010878004e48900095
:101d80000080fb00ce4890008180fb000181400074
:101d900001c6200081004100910078004809dd0063
:101da000ae4890008180fb008100410000014000ae
:101db00000c6200000004100010878004e48900055
:101dc0000080fb0001c7200002c8b30082707800c9
:101dd0004e4890000080fb008000400000c62000bc
:101de00000804000900078000e089000808f500026
:101df000030036008e089000010f780006003700bf
:101e00004e4890000080fb008000400000c620008b
:101e100000804000100f78001e017800fe00900046
:101e20004e489000da0807006d0037004e489000d9
:101e30000080fb008000400000c6200000804000c1
:101e4000100078000000e00044003a006300470002
:101e500022002000800078004e489000cc08070047
:101e60004e4890000080fb004200dd000000e800ca
:101e70004300dd000010b000cf80de0002c4b300dc
:101e80000c070700000000004e4890000080fb0097
:101e90004200dd000000e8004300dd000010b0005b
:101ea000cf80de00c50607000004e000f6ff3a0020
:101eb0004e4890000080fb00be4090008180fb00f7
:101ec0000001400000c62000000041000108780029
:101ed0004e4890000080fb00ce4890008180fb00bf
:101ee0000181400001c6200081004100910078007e
:101ef0004809dd00ce4090008180fb008100410058
:101f00000001400000c620000000410001087800e8
:101f10004e4890000080fb008000400000c620007a
:101f20000080400090007800a05e2000808f50006c
:101f3000050036004e489000cffa070070c12f0010
:101f4000f1ff2f005b0037004e4890000080fb003f
:101f500001c7200002c8b300827078004e4890008c
:101f60000080fb008000400000c620000080400090
:101f7000900078000e089000808f5000030036001b
:101f80008e089000010f7800060037004e48900040
:101f90000080fb008000400000c620000080400060
:101fa000100f78001e017800fe0090004e4890004f
:101fb000770807000a0037009e0078004e4890001e
:101fc000ca0807004e4890000080fb0080004000d7
:101fd00000c62000008040001e08780000000000bd
:101fe0004e4890000080fb004200dd000000e80049
:101ff0004300dd000010b000cf80de0002c4b3005b
:10200000ac060700000000004e4890000080fb0076
:102010004200dd000000e8004300dd000010b000d9
:10202000cf80de00650607000004e000f6ff3a00fe
:102030004e4890000080fb00ce4890008180fb005d
:102040000181400001c6200081004100910078001c
:102050009e8050000001400000c6200000004100aa
:10206000010878004e4890000080fb00800040008e
:1020700000c6200000804000100078000000e00052
:102080000a0032004e4890000080fb00ce489000cd
:102090008180fb0002c72000e2c078000141780087
:1020a0000204a00001c72000827078001e007800a2
:1020b0008000eb000080fa00000006000800fa0033
:1020c000881f780020479800210798003207980061
:1020d0000040eb00004f78002e409000e84f500089
:1020e0000200360000c0eb00950037002e00900083
:1020f000e30f500044003200e30f500005003e00a3
:10210000e10f500029003200e10f500030003e0086
:1021100009003700e50f50005b003200e50f50006a
:1021200047003900e60f500063003200e70f50000f
:10213000740032007f0037003e009000104f78009e
:102140001e407800e14f500009003a002e409000f8
:102150000080fb00110020000008dd0080007800f6
:1021600000408000010070000040880073003700cc
:102170001e4078000004e0000a003a002e40900063
:102180000080fb00110020000008dd000080ea0054
:1021900080007800004080000080600000408800df
:1021a0006600370060cfb300650037003e00900046
:1021b00002408000ae4090008180fb008110de0074
:1021c00081407800e1c06000014878005b00370082
:1021d0003e0490002e4090000080fb004200dd0095
:1021e0000000e800c300dd0000f021000080400096
:1021f000cf80de00f10507000080fb004a00dd0013
:10220000000c78004d0037003e0490002e409000f6
:102210000080fb004200dd000000e800c300dd009c
:1022200000e0210000804000cf80de00e3050700d1
:102230000080fb004a00dd00000c78003f00370002
:102240003e00900010407800ff4f50000200360022
:1022500060cfb3003a0037003e0090001040780095
:102260007f4160002e4090000080fb004200dd00b6
:102270000000e8004300dd000020b000cf80de0059
:102280000c0607002d0037003e0490002e40900001
:102290000080fb004200dd000000e8004300dd009c
:1022a0000020b000cf80de00c40507007f40600042
:1022b000004c7800210037003e009000104078006c
:1022c000ff4f50000200360060cfb3001c00370003
:1022d0003e009000104078007f4160002e4090004a
:1022e0000080fb004200dd000000e800c300dd00cc
:1022f00000c0220000804000cf80de00ed05070016
:102300000e0037003e0490002e4090000080fb003d
:102310004200dd000000e800c300dd0000c0220034
:1023200000804000cf80de00a40507007f406000f1
:10233000004c780060cfb3000100370010c0b3003c
:102340004f0478000080fa00000006000600fa0042
:10235000004f780011079800220798001e4078006f
:10236000e84f50000200360000c0eb00be0037000e
:102370001e009000e40f50003e003200e40f5000b9
:1023800007003e00e20f500017003200e20f50003d
:1023900020003e00e10f500008003200af0037007f
:1023a000e60f500056003200e60f50003c003900a6
:1023b000e70f500092003200a80037002e00900076
:1023c000104178001e80fb004200dd000000e800a4
:1023d000c300dd000060210000804000cf80de00ef
:1023e000b40507009f0037002e00900010417800d0
:1023f0001e80fb004200dd000000e800c300dd009d
:102400000050210000804000cf80de00a9050700b9
:10241000940037002e009000100078004800de0085
:10242000004178001e80fb004200dd000000e80053
:10243000c300dd000020210000804000cf80de00ce
:102440009c0507002e0090001000780000417800e5
:102450001e80fb004200dd000000e800c300dd003c
:102460000030210000804000cf80de009105070091
:102470007c0037002e0190001e80fb004200dd0032
:102480000000e800c300dd0000c020000080400024
:10249000cf80de00430020001206070071003700e5
:1024a0002e009000100078004800de000041780007
:1024b0001e80fb004200dd000000e800c300dd00dc
:1024c0000000210000804000cf80de007905070079
:1024d0002e00900010007800004178001e80fb0064
:1024e0004200dd000000e800c300dd000010210014
:1024f00000804000cf80de006e05070059003700e5
:102500001e80fb004200dd000000e8004300dd000b
:10251000cf80de00290507000080fb006f0060000f
:10252000e10f500002003200b0cfb3004e00370080
:102530001e80fb004200dd000000e800c300dd005b
:1025400000f0220000804000cf80de001b05070065
:102550000004e00002003200e0cfb3004200370088
:102560001e80fb004200dd000000e8004300dd00ab
:102570000010b000cf80de0022c2b3004d0507007e
:10258000150037001e80fb004200dd000000e8005f
:102590004300dd000020b000cf80de00070507000b
:1025a0000080fb00680060000000e0000a003200cc
:1025b0001e80fb004200dd000000e8004300dd005b
:1025c0000020b000cf80de0082c0b30039050700d4
:1025d00030cfb300240037001e80fb004200dd0036
:1025e0000000e8004300dd000010b000cf80de00f6
:1025f000f20407000004e000e2ff3a00190037008f
:102600001e80fb004200dd000000e8004300dd000a
:10261000cf80de00e90407000080fb006f0060004f
:10262000e10f500002003200b0cfb3000e003700bf
:102630002e009000104178001e80fb004200dd005b
:102640000000e800c300dd0000f022000080400030
:10265000cf80de00170507000200370060cfb3000f
:102660000100370010c0b3000080fa00000006002f
:102670000600fa00889fbe00004f780011079800fe
:10268000220798001e407800e84f500002003600f4
:1026900000c0eb00be0037001e0090008000eb0081
:1026a000c200200003002000820f5000838f5800da
:1026b000b4003e00006001000c0037001600370037
:1026c000200037002a0037003b0037004500370064
:1026d000ac0037005a003700710037007400370033
:1026e0007700370080003700940037002e049000f8
:1026f0001e80fb004200dd000000e8004300dd001a
:10270000cf80de00ad04070001cfb30001406000c0
:10271000004c78009d0037002e0490001e80fb00c6
:102720004200dd000000e800c300dd000060210081
:1027300000804000cf80de00a0040700004c78003d
:10274000920037002e0490001e80fb004200dd0046
:102750000000e800c300dd000050210000804000c0
:10276000cf80de0095040700004c7800870037001a
:102770001e80fb004200dd000000e800c300dd0019
:102780000020210000804000cf80de008b04070085
:102790002e0490001e80fb004200dd000000e800d7
:1027a000c300dd000030210000804000cf80de004b
:1027b00082040700004c78002e0190001e80fb0070
:1027c0004200dd000000e800c300dd0000c0200082
:1027d00000804000cf80de0043002000f8040700a6
:1027e0006a0037002e0490001e80fb004200dd00ce
:1027f0000000e800c300dd00000021000080400070
:10280000cf80de006d0407000080fb00c804dd00ff
:102810001e80fb004200dd000000e800c300dd0078
:102820000010210000804000cf80de00630407001c
:102830000080fb0000804400000c7800530037004b
:102840001e80fb004200dd000000e8004300dd00c8
:10285000cf80de00590407000080fb006f0060009d
:10286000e10f500002003200b0cfb3004800370043
:102870002e0490001e80fb004200dd000000e800f6
:10288000c300dd0000f0220000804000cf80de00a9
:102890004a0407000080fb00000c78003b00370072
:1028a0002e0490001e4078005c050700000c7800a4
:1028b0002e0490001e4078009b050700000c780055
:1028c0002e0490001e80fb004200dd000000e800a6
:1028d0004300dd000030b000cf80de003704070089
:1028e000004c7800290037001e80fb004200dd000c
:1028f0000000e8004300dd00cf80de002f04070069
:10290000e14f500005003a002e0490001e40780070
:1029100085050700000c78001c003700ae00900011
:102920001e80fb000001400000c6200000004100a6
:102930001000780080087800140037001e80fb002b
:102940004200dd000000e8004300dd00cf80de0033
:102950001a0407000080fb006f006000e10f5000c8
:1029600002003200b0cfb300090037002e00900003
:102970009e80fb0002c72000e2c07800014878007a
:1029800002003700e0cfb3000100370010c0b300f1
:102990004f04be000080fa00000006000000fa00ac
:1029a0000080fa00000006000000fa000080fa0033
:1029b000000006000000fa000080fa000000060097
:1029c0000000fa000080fa00000006000400fa008f
:1029d000008fbe001e007800104078000080fa00d2
:1029e000000006000600fa00008fbe004247980073
:1029f0001e007800ce409000014878000080fa0068
:102a0000000006000000fa000040eb000080fa0021
:102a1000000006000200fa00004f78000080fa0073
:102a2000000006000400fa00000f7800110798006b
:102a30001e0078000000e000030032001e0090003d
:102a40000000e00005003a00e04c2100006488002e
:102a5000404d210010648800040037009e0078007b
:102a6000016488009e009000116488000080fa00d4
:102a7000000006000400fa00000f7800110798001b
:102a80001e0078000000e000030032001e009000ed
:102a90000000e00005003a00a04d210020648800fd
:102aa000004e210030648800040037009e0078004a
:102ab000216488009e009000316488000080fa0044
:102ac000000006000400fa00000f780011079800cb
:102ad0001e0078000000e000030032001e0090009d
:102ae0000000e00005003a00604e210040648800cc
:102af000204f210050648800040037009e007800b9
:102b0000416488009e009000516488000080fa00b3
:102b1000000006000400fa00000f7800110798007a
:102b200000000000c16380000020200000806000e1
:102b30000000e000fbff32001e0078000000e00013
:102b4000030032001e0090000000e00005003a0083
:102b50002050210040648800a0502100506488006b
:102b6000040037009e007800416488009e009000b9
:102b7000516488000080fa00000006000a00fa0094
:102b8000889fbe0030079800410798000040eb0086
:102b9000004f78000000eb00100798000000eb00e9
:102ba000200798003e0090008000eb00f20020001b
:102bb00003002000820f5000838f580094003e00d5
:102bc000006001000f003700100037002a003700b6
:102bd000250037002c0037002f0037003200370067
:102be000410037004d003700690037006a003700a8
:102bf0006c003700880037006d0037007000370028
:102c000079003700b8000700840037004e009000bc
:102c10000000e000050032004e0090001007980010
:102c20001e0090006800400020079800ae00900051
:102c30001e0090000001eb00821f78000001eb00f5
:102c4000821f78008003eb000003eb008002eb00a2
:102c50000002eb008001eb000001eb00d800070050
:102c6000e48757006e0037004e0090001000780097
:102c70004a010700690037004e0490005a0107001e
:102c8000000c7800650037004e00900010007800be
:102c900070010700610037004e0490007e010700bc
:102ca000000c78005d0037004e00900010007800a6
:102cb0004800de000040780000417800003021002c
:102cc000010020007b0307004e00900010007800f8
:102cd0000040780000417800004021000100200001
:102ce000740307004d0037004e04900000302100af
:102cf00001002000310307000080fb00c804dd0054
:102d000000402100010020002c0307000080fb0090
:102d100000804400000c7800400037004e00900016
:102d2000a1c7200091407800014878004e00900033
:102d30000000e800b1c72000914078000148780009
:102d40004e0090000080e800c1c72000914078004c
:102d5000014878004e00900063004000d1c7200079
:102d600091407800014878004e00900064004000d7
:102d7000e1c7200091407800014878004e009000a3
:102d8000650040008040eb000148780023003700d8
:102d90007f010700210037004e00900091010700dd
:102da0001e0037004e009000b90107001b003700dd
:102db0004e009000104078001802070018003700fd
:102dc00060010700004f78001e407800e14f40008e
:102dd00002003a0000c0eb00110037004e009000e6
:102de0001e4878000d00370045010700004f7800ad
:102df0001e407800e14f400002003a0000c0eb00a6
:102e0000070037004e0090001e487800030037008e
:102e100000c0eb0002003700000000000040eb00a3
:102e20004f04be000080fa00000006000400fa0013
:102e3000881f7800000f7800110798001e007800a6
:102e4000e20f500014003200e20f500005003e0077
:102e50000000e0000a003200e10f50000b003200d9
:102e60001b003700e40f500013003200e40f500045
:102e70000d003900e50f5000120032001400370039
:102e80001e0090001b020700130037001e00900078
:102e90004a020700100037001e0090001000780062
:102ea000780207000d0037001e0490008c02070016
:102eb000000c7800080037001e0090008e0207000a
:102ec000050037001e009000a40207000200370032
:102ed00000c0eb00010037000040eb004f04780019
:102ee0000080fa00000006001200fa006c004700a3
:102ef0006300200000017800009020000100200005
:102f00002f030700430020000e017800001020006e
:102f1000010020002a03070064004700430020004e
:102f20000001780000502000010020002403070069
:102f300068004700430020000001780000f02000f6
:102f4000010020001e03070002c8b3006000b800a3
:102f5000d80207006000b800980207006c00470024
:102f60006300200000017800009020000100200094
:102f70005c030700430020000e01780000102000d1
:102f800001002000570307006400470043002000b1
:102f900000017800005020000100200051030700cc
:102fa00068004700430020000001780000f0200086
:102fb000010020004b0307000080fa00000006001b
:102fc0001200fa00100798002107980032079800b5
:102fd0004307980054079800650798007607980003
:102fe000070f98000040eb0010479800a0c7200092
:102ff00062002000013d2800def5070010202000bf
:10300000c0638800ce0090003e00900085fe07005f
:10301000ee0090005e00900096fe07008e08900083
:103020007e009000a7fe0700beb897004eb897003c
:10303000b8fe0700acff07001e0090000000e00093
:10304000280032000040eb00104798000040eb00e1
:10305000004f7800080037001e00fb009e00900023
:1030600000804000904078001e40900000c040006a
:10307000104798001e4fe8001e407800e74f5000b0
:10308000f5ff34001e409000f04f50000200340065
:1030900000c0eb003f0037000040eb00004f78001d
:1030a0000d0037001e00fb009e00900000804000d5
:1030b000104178001e00fb004200dd000000e80027
:1030c000c300dd0000f0210000804000cf80de0062
:1030d000780207001e4fe8001e407800e74f5000be
:1030e000f0ff34002e0090000000e00028003200c5
:1030f0000040eb00104798000040eb00004f7800c4
:10310000080037001e00fb00ae0090000080400069
:10311000904078001e40900000c04000104798008a
:103120001e4fe8001e407800e74f5000f5ff3400c6
:103130001e409000f04f50000200340000c0eb0031
:10314000140037000040eb00004f78000d003700fe
:103150001e00fb00ae00900000804000104178008f
:103160001e00fb004200dd000000e800c300dd009f
:1031700000e0210000804000cf80de004d0207000b
:103180001e4fe8001e407800e74f5000f0ff34006b
:103190000040eb000080fa00000006000400fa0086
:1031a000100798001e009000004f78001e0090004d
:1031b0004800de001047980000cfb3001e406000ba
:1031c0000041780000502100010020003902070072
:1031d0001e41900000702100010020003502070010
:1031e0000080fa00000006000400fa000040eb0036
:1031f000004f78000040eb00104798000000eb0003
:10320000100798000050210001002000eb0107008a
:1032100001cfb300014f60000070210001002000c9
:10322000e6010700104798001e4090000080fb0058
:10323000100798001e009000c800dd001e80fb00f3
:1032400000804000100798001e0090000080fa00e7
:10325000000006000400fa00100798001e0090000d
:10326000004f78001e0090004800de0010479800d4
:103270001e41780000602100010020000d020700bf
:103280001e4190000080210001002000090207007b
:103290000080fa00000006000400fa000040eb0085
:1032a000004f78000040eb00104798000000eb0052
:1032b000100798000060210001002000bf010700f6
:1032c000004f78000080210001002000bb010700b2
:1032d000104798001e4090000080fb0010079800e7
:1032e0001e009000c800dd001e80fb000080400032
:1032f000100798001e0090000080fa0000000600f1
:103300000200fa0000e0220001002000ab010700eb
:103310000080fb0061006000004078000004e000d5
:103320000300320010c0b300004f780002003700e5
:103330000040eb00004f78001e4078000080fa004b
:10334000000006000200fa000040eb00004f780089
:1033500000e0220001002000980107008080fb00af
:1033600000032000008060000000e0000300320045
:1033700010c0b300004f7800020037000040eb009f
:10338000004f78001e4078000080fa000000060020
:103390000200fa0000e0220001002000870107007f
:1033a000004f78001e74a1001e41780000e022004a
:1033b00001002000bf01070000e022000100200002
:1033c0007e010700004f78001e74a0001e417800a7
:1033d00000e0220001002000b60107000080fa0092
:1033e000000006000400fa00100798000040eb00ff
:1033f000004f78001e00900010407800e14f500010
:1034000002003a001e64a000010037001e64a10003
:103410001e00900010409000e14f500003003a0061
:1034200080c3b3001e4f7000120037001e009000d2
:1034300030409000e14f500009003a001e0090001b
:1034400020409000e14f500003003a009e40780079
:1034500078cf7000070037001e34a0000500370049
:103460001e00900020409000e14f500001003a0003
:103470001e44a0001e41780000e022000100200050
:103480008c010700c2ff07000080fa000000060060
:103490000400fa00100798000040eb00004f78008d
:1034a00000e022000100200044010700004f7800e6
:1034b0009e80fb00000420000080600000f0a70058
:1034c0000000ea000000ea004f00de0080407800c3
:1034d0001e009000014878009e80fb0080032000c1
:1034e0000080600001022000810f500003003200c4
:1034f00081032000810f500004003a001e0090005c
:1035000011c0b30011409800040037001e00900065
:103510008040eb0011409800000000009e80fb00fe
:103520008003200000806000f80f5000050032008a
:1035300001022000810f500002003200f00f500005
:1035400004003a001e00900011c0b3002140980012
:10355000040037001e0090008040eb0021409800de
:10356000000000009e80fb008003200000806000bf
:10357000f80f50000500320001022000810f5000ba
:1035800002003200e80f500004003a001e009000d4
:1035900011c0b30031409800040037001e009000b5
:1035a0008040eb0031409800000000000080fa00ed
:1035b000000006000400fa001007980000e0220056
:1035c00001002000fd000700004f78001e80fb0076
:1035d0006400600000f0a7000000ea000000ea00bc
:1035e0004f00de00804078001e00900031409800bf
:1035f0001e80fb006200600000f0a7000000ea00ef
:103600000000ea004f00de00804078001e009000bd
:10361000214098000080fa00000006000400fa0033
:10362000204798000040eb00004f780000e02200a7
:1036300001002000e1000700004f78009e80fb00a1
:1036400000042000008060000000e00002003a005a
:1036500000c0eb002500370070ccb3001e4f6000a7
:103660002e409000e14f500003003a0000c3b30029
:103670001e4f70000200370080c3b3001e4f700061
:103680001e41780000e0220001002000090107002f
:103690003fff070000e0220001002000c7000700f4
:1036a000004f78002e409000e14f500007003a0094
:1036b0009e80fb0000032000008060000000e0000e
:1036c000090032000040eb00080037009e80fb003c
:1036d00080032000008060000000e0000200320053
:1036e0000040eb000100370000c0eb000080fa0052
:1036f000000006000200fa00000f78001e007800ab
:1037000063002000000178000090200001002000ec
:10371000740107009e0078006e8040004300200086
:103720000001780000102000010020006d0107005a
:103730009e0078006a80400043002000000178006d
:103740000050200001002000660107009e00780064
:1037500066804000430020000001780000f0200057
:10376000010020005f0107001e007800a0509000bb
:10377000c0c82000014878001e007800b0509000ba
:10378000d0c82000014878001e007800c05090008a
:10379000e0c82000014878001e007800d05090005a
:1037a000f0c82000014878001e0078003008900022
:1037b000404088000080fa00000006000200fa0085
:1037c000000f78001e0078006300200000017800e0
:1037d0000090200001002000f90007009e00780002
:1037e0006e8040004300200000017800001020009f
:1037f00001002000f20007009e0078006a8040006f
:10380000430020000001780000502000010020004b
:10381000eb0007009e007800668040004300200017
:103820000001780000f0200001002000e400070003
:10383000c0c82000904078001e00780021509800f9
:10384000d0c82000904078001e00780031509800c9
:10385000e0c82000904078001e0078004150980099
:10386000f0c82000904078001e0078005150980069
:10387000414080001e007800310898000080fa0066
:10388000000006000400fa00100798000040eb005a
:10389000004f78009e00900050fc2f0000806000d8
:1038a0000000e0000200320000c0eb000a00370018
:1038b0006000b80041000700004f78001e00900033
:1038c000004078001e4f70001e4178006000b80074
:1038d000780007000040eb000080fa0000000600be
:1038e0000000fa006000b800340007000080fb0010
:1038f0000080fa00000006000200fa00000f7800c5
:103900001e007800104078000041780000b02100cf
:1039100001002000670007001e00780010009000e2
:103920004800de000040780000417800009021004f
:10393000010020005f0007001e00780010009000ca
:10394000004078000041780000a021000100200024
:10395000580007000080fa00000006000200fa008c
:10396000881f7800000f780000b0210001002000bf
:10397000120007009e007800804878000090210027
:10398000010020000d0007000080fb004804dd005e
:1039900000a0210001002000080007000080fb00bb
:1039a00000004400800078001e007800110098009c
:1039b0004f0478000080fa00000006000600fa00bc
:1039c000889fbe008a9fbe001007980021079800bc
:1039d00000648000000001002064800000000100fd
:1039e000546480001e019000ae0190000000200091
:1039f000f10f200082027800030178008001780036
:103a000081007800038062008100610081057800f8
:103a1000000578000a00be004008de000040780083
:103a200004000100546480001e019000ae0190006b
:103a300000f02f00010020008202780003017800ce
:103a400080017800810078000380620081006100bd
:103a500081047800000478000800be004809dd00f9
:103a60004800de0000007100c808de000040780059
:103a700004000100516480001e00900000407800a6
:103a8000010001004064800000000100004f780048
:103a9000306480000000010010648000000001001c
:103aa0001e4078004f05be004f04be000080fa00a3
:103ab000000006000a00fa00889fbe008a9fbe0030
:103ac0002007980031079800024f9800006480009a
:103ad0000000010020648000000001002e00900022
:103ae000be0090000020a000200798003107980039
:103af000546480002e019000be0190000000200060
:103b0000f10f200082027800030178008001780024
:103b100081007800038062008100610081057800e7
:103b2000000578000a00be004008de000040780072
:103b300004000100546480002e019000be0190003a
:103b400000f02f00010020008202780003017800bd
:103b500080017800810078000380620081006100ac
:103b600081047800000478000800be004809dd00e8
:103b70004800de0000007100c808de000040780048
:103b800004000100516480002e0090000040780085
:103b900001000100516480000e4890000100010006
:103ba000306480000000010010648000000001000b
:103bb0004f05be004f04be000080fa000000060062
:103bc0000e00fa00889fbe008a9fbe003007980052
:103bd000410798005207980063079800006480002e
:103be0000000010020648000000001005464800097
:103bf0003e019000ce01900000002000f10f200057
:103c0000820278000301780080017800810078004a
:103c10000380620081006100810578000005780062
:103c20000a00be004008de000040780004000100e9
:103c3000546480003e019000ce01900000f02f00ff
:103c400001002000820278000301780080017800e2
:103c500081007800038062008100610081047800a7
:103c6000000478000800be004809dd004800de00be
:103c700000007100c808de00004078000400010068
:103c8000516480003e009000004078000100010077
:103c90000000eb00000f7800060037005e00900087
:103ca0001e0440004064800000000100004c7800c9
:103cb0001e0fe8006e0090009e007800808f50007c
:103cc000f6ff3900306480000000010010648000bd
:103cd000000001004f05be004f04be000080fa0046
:103ce000000006000a00fa00889fbe008a9fbe00fe
:103cf00010079800210798003207980043079800a2
:103d000000648000000001002064800000000100c9
:103d10001e009000ae0090000020a0001007980048
:103d200021079800546480001e019000ae019000ad
:103d300000002000f10f20008202780003017800cb
:103d400080017800810078000380620081006100ba
:103d500081057800000578000a00be004008de00fa
:103d60000040780004000100546480001e019000af
:103d7000ae01900000f02f000100200082027800c8
:103d800003017800800178008100780003806200e0
:103d90008100610081047800000478000800be0002
:103da0004809dd004800de0000007100c808de00a0
:103db0000040780004000100516480001e00900063
:103dc00000407800010001000000eb00000f7800c7
:103dd00006003700516480003e0090001e00400045
:103de00010407800010001001e0fe8004e00900016
:103df0009e007800808f5000f6ff3900306480000c
:103e00000000010010648000000001004f05be00aa
:103e10004f04be000080fa00000006000600fa0011
:103e2000881f7800404798000000eb00000f7800e2
:103e30000000eb00100798004e4090000080fb004f
:103e40004200dd000000e800c300dd0000002200a9
:103e500000804000cf80de00d8fe07000080fb001d
:103e6000100798001e0090004804dd004e409000ae
:103e70000080fb004200dd000000e800c300dd0020
:103e80000010220000804000cf80de00cbfe070043
:103e90000080fb0000004400100798001e00900006
:103ea0000000e000180032004e4090000080fb004f
:103eb0004200dd000000e800c300dd000000220039
:103ec00000804000cf80de00bcfe07000080fb00c9
:103ed000000f78001e0078004804dd004e4090007e
:103ee0000080fb004200dd000000e800c300dd00b0
:103ef0000010220000804000cf80de00affe0700ef
:103f00000080fb00000f44001e0090009e0078001f
:103f1000808f5000c8ff3a001e0078004f047800e0
:103f20000080fa00000006000600fa00881f7800f2
:103f3000404798000000eb00000f78000000eb0005
:103f4000100798004e4090000080fb004200dd000a
:103f50000000e800c300dd00006022000080400097
:103f6000cf80de0095fe07000080fb001007980060
:103f70001e0090004804dd004e4090000080fb00d1
:103f80004200dd000000e800c300dd0000702200f8
:103f900000804000cf80de0088fe07000080fb002c
:103fa00000004400100798001e0090000000e00090
:103fb000180032004e4090000080fb004200dd00ff
:103fc0000000e800c300dd00006022000080400027
:103fd000cf80de0079fe07000080fb00000f780034
:103fe0001e0078004804dd004e4090000080fb0079
:103ff0004200dd000000e800c300dd000070220088
:1040000000804000cf80de006cfe07000080fb00d7
:10401000000f44001e0090009e007800808f50002a
:10402000c8ff3a001e0078004f0478000080fa00b4
:10403000000006000c00fa00881f78006047980016
:1040400041079800520798000000eb00000f78002d
:104050006000b80010079800210798005e009000eb
:104060000000e000460032006e4090000080fb003f
:104070004200dd000000e800c300dd000040220037
:1040800000804000cf80de004cfe07000080fb0077
:104090004804dd006e4090000080fb004200dd001f
:1040a0000000e800c300dd00005022000080400056
:1040b000cf80de0041fe07000080fb0000004400ce
:1040c000000f78001e0078008000eb004809dd003a
:1040d000c801de00830171004801dd006e409000e0
:1040e0000080fb004200dd000080e8004300dd00ae
:1040f000cf80de0002004000838048001007980057
:1041000021079800de0190004e0190001e009000f3
:10411000ae009000f3fe07005e0090001e0f40000e
:104120001e0078004800de00004178006e409000dc
:104130000080fb004200dd000000e800c300dd005d
:104140000040220000804000cf80de0059fe0700c2
:104150001e007800004178006e4090000080fb0057
:104160004200dd000000e800c300dd000050220036
:1041700000804000cf80de004efe070001003700c7
:10418000000000004f0478000080fa0000000600e4
:104190000c00fa00881f78006047980041079800db
:1041a000520798000000eb00000f78006000b80094
:1041b00010079800210798005e0090000000e000c2
:1041c000460032006e4090000080fb004200dd009f
:1041d0000000e800c300dd000080220000804000f5
:1041e000cf80de00f5fd07000080fb004804dd0005
:1041f0006e4090000080fb004200dd000000e800ff
:10420000c300dd000090220000804000cf80de006f
:10421000eafd07000080fb0000004400000f78006a
:104220001e0078008000eb004809dd00c801de00b8
:10423000830171004801dd006e4090000080fb00aa
:104240004200dd00630040004300dd00cf80de005f
:104250000200400083804800100798002107980062
:10426000de0190004e0190001e009000ae00900014
:1042700053fe07005e0090001e0f40001e007800f5
:104280004800de00004178006e4090000080fb0096
:104290004200dd000000e800c300dd0000802200d5
:1042a00000804000cf80de0002fe07001e00780084
:1042b000004178006e4090000080fb004200dd006d
:1042c0000000e800c300dd000090220000804000f4
:1042d000cf80de00f7fd070001003700000000007e
:1042e0004f0478000080fa00000006000600fa0083
:1042f000881f780020479800210798000000eb00f5
:10430000000f78002e4090000080fb004200dd008e
:104310000000e800c300dd000080220000804000b3
:10432000cf80de00a5fd07000080fb004804dd0013
:104330002e4090000080fb004200dd000000e800fd
:10434000c300dd000090220000804000cf80de002e
:104350009afd07000080fb0000004400000f780079
:104360002e0090001e0f40001e0078004800de0066
:10437000004178002e4090000080fb004200dd00ec
:104380000000e800c300dd00008022000080400043
:10439000cf80de00c7fd07001e00780000417800d6
:1043a0002e4090000080fb004200dd000000e8008d
:1043b000c300dd000090220000804000cf80de00be
:1043c000bcfd07004f0478000080fa0000000600e2
:1043d0000200fa00000f780000032800200888007f
:1043e0000021ef001e0078004400dd001008880066
:1043f0000000000020048000680060000000e00071
:10440000fcff32008460a90005e1a9000080fa00e9
:10441000000006000000fa00cc02a9000080fa00ab
:10442000000006000000fa00cc02a8000080fa009c
:10443000000006000000fa00a0cab30084010700d3
:104440000080fa00000006000200fa00004f780029
:104450001e4078007e0107000080fa000000060080
:104460000800fa000000eb00000f78000000eb00ed
:104470001007980080302000010020004ffd070049
:104480000080fb00f30f500053003200f30f500088
:1044900003003c000000e0005600320062003700dc
:1044a000f70f500003003200fc0f500043003200b1
:1044b0005d00370080202000010020003ffd070044
:1044c0000080fb0061006000004078000004e00014
:1044d0000400320012c0b300802020000100200040
:1044e00074fd07000040eb008ffe0700000f78000e
:1044f0001e0078000000e00048003200004020006c
:104500009e007800808f500002003600004020009e
:10451000000f78001e017800c18020000040eb00f1
:10452000bdf3070020079800310798002e00900087
:10453000be009000e00f5000e08f580039003400ba
:104540000000eb0010079800170037001e009000d5
:104550009e0010001e019000c0802000000041005d
:1045600001017800800078000040eb00e0f20700d5
:1045700020079800310798002e009000be009000a0
:10458000e00f5000e08f580003003d000040eb00ba
:1045900039f10700240037002e0090009e009000a3
:1045a00000804000100798001e0090009e007800d8
:1045b000808f5000e5ff3a001b0037000040eb0001
:1045c00078f207000000fb00cf80de002007980093
:1045d00031079800140037000040eb0066f1070037
:1045e0000000fb00cf80de00200798003107980014
:1045f0000d0037008041eb008238210011c0b3006c
:104600000040eb006af007000000fb00cf80de00f6
:1046100020079800310798000300370000000000d1
:1046200001003700000000000080fa0000000600d2
:104630000e00fa008032200001002000dffc07009d
:104640000080fb000000e0003f003200210220005b
:10465000810f500046003a0010c0b30032fe070040
:10466000000f78001e0078000000e00042003200d9
:10467000004020009e007800808f5000020036002d
:1046800000402000000f7800ec0047006800470061
:1046900001027800800178001e017800c1802000ae
:1046a00010c0b30011f507002007980031079800eb
:1046b0002e009000be009000e00f5000e08f5800e8
:1046c0002f003400ae009000010f78000000eb00d6
:1046d0001007980018003700ee0190001e009000af
:1046e0009e0010001e019000c080200000004100cc
:1046f0006801470003027800820178000101780018
:104700008000780010c0b300dff307002007980096
:10471000310798002e009000be009000e00f50007e
:10472000e08f5800180035002e0090009e00900089
:1047300000804000100798001e0090009e0f50005f
:10474000e5ff3a00110037008041eb0012712200b2
:1047500021c0b30010c0b30015f007000000fb003b
:10476000cf80de002007980031079800070037004f
:1047700000000000050037000000000003003700c3
:104780000000000001003700000000000080fa0077
:10479000000006000800fa00813c2800070009001c
:1047a000315f78008e00b100c9a2a900c802a9003b
:1047b0001cff0700cda2a900cda2a8004022220024
:1047c000801f7800a0212200801f78008003eb006a
:1047d0000003eb0025212200a42022008001eb0031
:1047e0000001eb008e0078000e007800f4f907005d
:1047f000e487570041c420000000eb008bf907005c
:10480000c1c52000a0002000dcf807000080fa00ed
:10481000000006000000fa00a6010700c9e2a90096
:10482000c9a2a900dbff0700c0c02000e3fb07000e
:104830007fff0700feff37000000fa00b0132000e2
:10484000101288001000200020128800c0002800ec
:10485000001288000080fa00000006000400fa0040
:10486000000f78001107980000000000001280007f
:10487000620060000000e000fcff3a001e007800cb
:10488000104078000080fb0040128800000000000b
:104890000112800000022000008060000000e000a3
:1048a000fbff3a0040128000804078001e0090001c
:1048b000014878000080fa00000006001800fa00a5
:1048c000100f9800210f9800320f98000000eb00a5
:1048d000000f78000000eb00100798000000eb00cc
:1048e000700798000000eb00000f980010002000f7
:1048f000600798001e0890000000e00005003a00e4
:104900000000eb0050079800700047002007980057
:1049100004003700ee009000510798009e089000b8
:10492000210798003e0890000000e00005003a00d2
:104930000000eb00400798006e0047003007980029
:1049400005003700ee00900041079800be08900077
:104950003107980000000000001280006200600033
:104960000000e000fcff3a001d003700001280004c
:10497000620060000000e00009003a002e00900094
:10498000104078000080fb0040128800ae009000cc
:104990005e00900000804000200798001e0fe80095
:1049a0000112800000022000008060000000e00092
:1049b0000b003a0040128000804078003e009000da
:1049c00001487800be0090004e009000008040003a
:1049d000300798001e0090000000e80010079800c3
:1049e0002e0890009e007800808f5000dfff390075
:1049f00010003700011280000002200000806000db
:104a00000000e0000b003a00401280008040780077
:104a10003e00900001487800be0090004e009000db
:104a200000804000300798001e0090000000e80061
:104a3000100798009e0090002e089000808f500074
:104a4000ecff39001e0078000080fa00000006002c
:104a50000400fa00204798000e80e8008e007800dd
:104a60007eff07001e4078000080fa00000006006c
:104a70000600fa00000f780011079800220798003e
:104a80002e0190009e0090001e0078008bff070012
:104a90000080fa00000006000000fa00001280000a
:104aa0000080fa00000006000000fa000021ef007c
:104ab0000221ef00000028002008880050408000fc
:104ac0000000e00002003a00a05a22002400070083
:104ad0008460a9009460a80000c920008040eb0019
:104ae000014878000080fa00000006000200fa0089
:104af000000f78009e0078001108880000c920008f
:104b00008040eb00014878000080fa0000000600b9
:104b10000000fa00100880000080fa000000060083
:104b20000200fa00000f78009e007800010888005b
:104b300000c920008040eb00014878000080fa00a6
:104b4000000006000000fa00000880000080fa0063
:104b5000000006000000fa000080fa0000000600d5
:104b60000200fa00000f78009460a9009e0078000f
:104b7000514088009460a8000080fa000000060000
:104b80000000fa0000c920008040eb0001487800d6
:104b90009460a80005e1a8000080fa00000006006b
:104ba0000000fa0005e1a9009460a9000080fa0065
:104bb000000006000200fa0000c92000104f780033
:104bc0001e4078000004e0000300320000c920000d
:104bd0008040eb00014878001e4078000080fa0019
:104be000000006000000fa0010c920001040780004
:104bf0000080fb000080fa00000006000000fa00c0
:104c000010c920008040eb00014878000080fa00c5
:104c1000000006000000fa00c422ef00cc22ef00e2
:104c2000d422ef00dc22ef00e422ef00ec22ef00c0
:104c3000f422ef0000602c0000168800c0f7270067
:104c400040168800a0002700801688000080eb0036
:104c5000c0168800f03f200000178800f0132000e5
:104c600040178800f03c2000801788005420ef0097
:104c70005620ef005820ef005a20ef005c20ef0094
:104c80006c20ef006e20ef007020ef007220ef002c
:104c90007420ef00c622ef00ce22ef00d622ef00f4
:104ca000de22ef00e622ef00ee22ef00f622ef0018
:104cb0002a23ef00700b280060198800113a800049
:104cc000f00b2000008160006004200071052000ce
:104cd0002374200080497800814978008249780057
:104ce0000136800000fc2f00008060009000b300bf
:104cf000003688004135800000fc2f0000806000f5
:104d0000d000b3004035880031368000f00f2c0011
:104d10000080600000b0a0003036880001368000be
:104d2000f00f2c00808060000070200001007000f7
:104d300000368800103a8000000178000260a00070
:104d40006004200071052000237420008049780051
:104d500081497800824978000080fa00000006004e
:020000040000fa
:104d6000240c0000200000000000000004080000e7
:104d70000200000002000000ffff0000440c0000e1
:104d80001c000000020000000014a30072173f0086
:104d9000c0a8010035ffff00fe00c000a80101000f
:104da000c0a8010063010000000000000100000035
:104db0000c0800001804000000000000600c000057
:104dc00018000000000000000608000002000000bb
:104dd0000200000000c00000000800000400000005
:104de00000000000780c0000180000000000000027
:104df000080800000200000000000000900c000005
:104e000002000000000000000a080000020000008c
:084e100000000000000000009a
:020000040000fa
:104e18000000fa0000002300203a88004827ef002d
:104e28004e27ef007027ef007227ef007427ef007e
:104e38007627ef007827ef007a27ef00720020002e
:104e480080072000a10920003374200080497800e1
:104e580081497800824978000001eb006004200055
:104e6800710520002374200080497800814978006a
:104e7800824978000080fa00000006000200fa006b
:104e8800000f78009e00780021408800ffff37005f
:104e98000000fa0040c2200080077800c0c320004c
:104ea800000188000080fa00000006000000fa00f7
:104eb80056ff0700d6ff0700040007005cfe070046
:104ec800f7fe07000080fa00000006000000fa0064
:104ed80021058000f0ff28000080600000c0a000cd
:0c4ee800200588000080fa000000060091
:020000040000fa
:020000040005f5
:0457f400ffff0000b3
:020000040000fa
:020000040005f5
:0457f800bf77000077
:020000040000fa
:020000040005f5
:0457fc007f3d0000ed
:00000001FF
